{
  "contractName": "ACE",
  "abi": [
    {
      "constant": true,
      "inputs": [
        {
          "name": "",
          "type": "address"
        }
      ],
      "name": "noteRegistries",
      "outputs": [
        {
          "name": "",
          "type": "address"
        }
      ],
      "payable": false,
      "stateMutability": "view",
      "type": "function",
      "signature": "0x3f7e0f8f"
    },
    {
      "constant": true,
      "inputs": [
        {
          "name": "",
          "type": "uint16"
        }
      ],
      "name": "validators",
      "outputs": [
        {
          "name": "",
          "type": "address"
        }
      ],
      "payable": false,
      "stateMutability": "view",
      "type": "function",
      "signature": "0x69f7fa1f"
    },
    {
      "constant": true,
      "inputs": [],
      "name": "owner",
      "outputs": [
        {
          "name": "",
          "type": "address"
        }
      ],
      "payable": false,
      "stateMutability": "view",
      "type": "function",
      "signature": "0x8da5cb5b"
    },
    {
      "constant": true,
      "inputs": [
        {
          "name": "",
          "type": "uint16"
        }
      ],
      "name": "balancedProofs",
      "outputs": [
        {
          "name": "",
          "type": "bool"
        }
      ],
      "payable": false,
      "stateMutability": "view",
      "type": "function",
      "signature": "0x9a6aa4e0"
    },
    {
      "inputs": [],
      "payable": false,
      "stateMutability": "nonpayable",
      "type": "constructor",
      "signature": "constructor"
    },
    {
      "anonymous": false,
      "inputs": [
        {
          "indexed": false,
          "name": "_proofType",
          "type": "uint16"
        },
        {
          "indexed": false,
          "name": "_validatorAddress",
          "type": "address"
        },
        {
          "indexed": false,
          "name": "_isBalanced",
          "type": "bool"
        }
      ],
      "name": "LogSetProof",
      "type": "event",
      "signature": "0xd40cf1ca4d423849d345777d40c93297652998c20de84f223942bbf2cbcba75b"
    },
    {
      "anonymous": false,
      "inputs": [
        {
          "indexed": false,
          "name": "_commonReferenceString",
          "type": "bytes32[6]"
        }
      ],
      "name": "LogSetCommonReferenceString",
      "type": "event",
      "signature": "0x7c0947ed607ee0a9cb1d0e2afd6f75d59aa00a3c05d0103a2f79b6bf1b5e6e55"
    },
    {
      "constant": false,
      "inputs": [
        {
          "name": "_proofType",
          "type": "uint16"
        },
        {
          "name": "_sender",
          "type": "address"
        },
        {
          "name": "",
          "type": "bytes"
        }
      ],
      "name": "validateProof",
      "outputs": [
        {
          "name": "",
          "type": "bytes"
        }
      ],
      "payable": false,
      "stateMutability": "nonpayable",
      "type": "function",
      "signature": "0xc35b8526"
    },
    {
      "constant": false,
      "inputs": [
        {
          "name": "_proofType",
          "type": "uint16"
        },
        {
          "name": "",
          "type": "bytes32[]"
        }
      ],
      "name": "clearProofByHashes",
      "outputs": [],
      "payable": false,
      "stateMutability": "nonpayable",
      "type": "function",
      "signature": "0xb387e59b"
    },
    {
      "constant": true,
      "inputs": [
        {
          "name": "_proofType",
          "type": "uint16"
        },
        {
          "name": "_proofHash",
          "type": "bytes32"
        },
        {
          "name": "_sender",
          "type": "address"
        }
      ],
      "name": "validateProofByHash",
      "outputs": [
        {
          "name": "",
          "type": "bool"
        }
      ],
      "payable": false,
      "stateMutability": "view",
      "type": "function",
      "signature": "0xfa7ff56c"
    },
    {
      "constant": false,
      "inputs": [
        {
          "name": "_canMint",
          "type": "bool"
        },
        {
          "name": "_canBurn",
          "type": "bool"
        },
        {
          "name": "_canConvert",
          "type": "bool"
        },
        {
          "name": "_scalingFactor",
          "type": "uint256"
        },
        {
          "name": "_linkedToken",
          "type": "address"
        }
      ],
      "name": "createNoteRegistry",
      "outputs": [
        {
          "name": "",
          "type": "address"
        }
      ],
      "payable": false,
      "stateMutability": "nonpayable",
      "type": "function",
      "signature": "0xe557c7a7"
    },
    {
      "constant": false,
      "inputs": [
        {
          "name": "_proofOutput",
          "type": "bytes"
        },
        {
          "name": "_proofType",
          "type": "uint16"
        },
        {
          "name": "_proofSender",
          "type": "address"
        }
      ],
      "name": "updateNoteRegistry",
      "outputs": [
        {
          "name": "",
          "type": "bool"
        }
      ],
      "payable": false,
      "stateMutability": "nonpayable",
      "type": "function",
      "signature": "0xa975f524"
    },
    {
      "constant": false,
      "inputs": [
        {
          "name": "_commonReferenceString",
          "type": "bytes32[6]"
        }
      ],
      "name": "setCommonReferenceString",
      "outputs": [],
      "payable": false,
      "stateMutability": "nonpayable",
      "type": "function",
      "signature": "0x56a0d477"
    },
    {
      "constant": false,
      "inputs": [
        {
          "name": "_proofType",
          "type": "uint16"
        },
        {
          "name": "_validatorAddress",
          "type": "address"
        },
        {
          "name": "_isBalanced",
          "type": "bool"
        }
      ],
      "name": "setProof",
      "outputs": [],
      "payable": false,
      "stateMutability": "nonpayable",
      "type": "function",
      "signature": "0x9465be5d"
    },
    {
      "constant": true,
      "inputs": [
        {
          "name": "_proofType",
          "type": "uint16"
        }
      ],
      "name": "getValidatorAddress",
      "outputs": [
        {
          "name": "",
          "type": "address"
        }
      ],
      "payable": false,
      "stateMutability": "view",
      "type": "function",
      "signature": "0x856ec6c6"
    },
    {
      "constant": true,
      "inputs": [
        {
          "name": "_proofType",
          "type": "uint16"
        }
      ],
      "name": "getIsProofBalanced",
      "outputs": [
        {
          "name": "",
          "type": "bool"
        }
      ],
      "payable": false,
      "stateMutability": "view",
      "type": "function",
      "signature": "0x4d964e48"
    },
    {
      "constant": true,
      "inputs": [],
      "name": "getCommonReferenceString",
      "outputs": [
        {
          "name": "",
          "type": "bytes32[6]"
        }
      ],
      "payable": false,
      "stateMutability": "view",
      "type": "function",
      "signature": "0xdd695b72"
    }
  ],
  "bytecode": "0x608060405234801561001057600080fd5b5060068054600160a060020a0319163317905561278b806100326000396000f3fe608060405234801561001057600080fd5b5060043610610107576000357c0100000000000000000000000000000000000000000000000000000000900480639a6aa4e0116100a9578063c35b852611610083578063c35b8526146103ad578063dd695b72146104ab578063e557c7a7146104eb578063fa7ff56c1461052f57610107565b80639a6aa4e014610259578063a975f5241461027a578063b387e59b1461033257610107565b806369f7fa1f116100e557806369f7fa1f146101d7578063856ec6c6146101f85780638da5cb5b146102195780639465be5d1461022157610107565b80633f7e0f8f1461010c5780634d964e481461014e57806356a0d47714610183575b600080fd5b6101326004803603602081101561012257600080fd5b5035600160a060020a0316610565565b60408051600160a060020a039092168252519081900360200190f35b61016f6004803603602081101561016457600080fd5b503561ffff16610580565b604080519115158252519081900360200190f35b6101d5600480360360c081101561019957600080fd5b810190808060c0019060068060200260405190810160405280929190826006602002808284376000920191909152509194506105999350505050565b005b610132600480360360208110156101ed57600080fd5b503561ffff16610652565b6101326004803603602081101561020e57600080fd5b503561ffff1661066d565b61013261068c565b6101d56004803603606081101561023757600080fd5b5061ffff81351690600160a060020a036020820135169060400135151561069b565b61016f6004803603602081101561026f57600080fd5b503561ffff1661077e565b61016f6004803603606081101561029057600080fd5b8101906020810181356401000000008111156102ab57600080fd5b8201836020820111156102bd57600080fd5b803590602001918460018302840111640100000000831117156102df57600080fd5b91908080601f0160208091040260200160405190810160405280939291908181526020018383808284376000920191909152509295505050813561ffff1692505060200135600160a060020a0316610793565b6101d56004803603604081101561034857600080fd5b61ffff823516919081019060408101602082013564010000000081111561036e57600080fd5b82018360208201111561038057600080fd5b803590602001918460208302840111640100000000831117156103a257600080fd5b509092509050610953565b610436600480360360608110156103c357600080fd5b61ffff82351691600160a060020a03602082013516918101906060810160408201356401000000008111156103f757600080fd5b82018360208201111561040957600080fd5b8035906020019184600183028401116401000000008311171561042b57600080fd5b5090925090506109c0565b6040805160208082528351818301528351919283929083019185019080838360005b83811015610470578181015183820152602001610458565b50505050905090810190601f16801561049d5780820380516001836020036101000a031916815260200191505b509250505060405180910390f35b6104b3610b20565b604051808260c080838360005b838110156104d85781810151838201526020016104c0565b5050505090500191505060405180910390f35b610132600480360360a081101561050157600080fd5b5080351515906020810135151590604081013515159060608101359060800135600160a060020a0316610b5c565b61016f6004803603606081101561054557600080fd5b50803561ffff169060208101359060400135600160a060020a0316610c68565b600a60205260009081526040902054600160a060020a031681565b61ffff1660009081526008602052604090205460ff1690565b600654600160a060020a031633146105e55760405160e560020a62461bcd02815260040180806020018281038252603381526020018061272d6033913960400191505060405180910390fd5b6105f26000826006610c95565b507f7c0947ed607ee0a9cb1d0e2afd6f75d59aa00a3c05d0103a2f79b6bf1b5e6e55816040518082600660200280838360005b8381101561063d578181015183820152602001610625565b5050505090500191505060405180910390a150565b600760205260009081526040902054600160a060020a031681565b61ffff16600090815260076020526040902054600160a060020a031690565b600654600160a060020a031681565b600654600160a060020a031633146106e75760405160e560020a62461bcd0281526004018080602001828103825260268152602001806126e66026913960400191505060405180910390fd5b61ffff83166000818152600760209081526040808320805473ffffffffffffffffffffffffffffffffffffffff1916600160a060020a0388169081179091556008835292819020805460ff191686151590811790915581519485529184019290925282820152517fd40cf1ca4d423849d345777d40c93297652998c20de84f223942bbf2cbcba75b916060908290030190a1505050565b60086020526000908152604090205460ff1681565b336000908152600a6020526040812054600160a060020a03168015156107ed5760405160e560020a62461bcd02815260040180806020018281038252602b815260200180612691602b913960400191505060405180910390fd5b6040517fa975f52400000000000000000000000000000000000000000000000000000000815261ffff85166024820152600160a060020a0384811660448301526060600483019081528751606484015287519184169263a975f52492899289928992829160840190602087019080838360005b83811015610878578181015183820152602001610860565b50505050905090810190601f1680156108a55780820380516001836020036101000a031916815260200191505b50945050505050602060405180830381600087803b1580156108c657600080fd5b505af11580156108da573d6000803e3d6000fd5b505050506040513d60208110156108f057600080fd5b50511515610948576040805160e560020a62461bcd02815260206004820152600e60248201527f757064617465206661696c656421000000000000000000000000000000000000604482015290519081900360640190fd5b506001949350505050565b6040516024356004018035856020840152336040840152600960205260005b818110156109b7576020808202840101358015600181146109925761099e565b61019060005260206000fd5b5084526060842060009081526040812055600101610972565b50505050505050565b61ffff8416600090815260076020526040902054606090600160a060020a0316801515610a215760405160e560020a62461bcd02815260040180806020018281038252602181526020018061270c6021913960400191505060405180910390fd5b604051610100600480830191909152602482018790526000546044808401919091526001546064840152600254608484015260035460a4840152815460c484015260055460e4840152350180356020018161010484013760008061012483350184865afa1515610a975761019060005260206000fd5b3d6000833e81825183013d6020850101935089600052600860205260406000205460018114610ac557610b1b565b602082015160005b81811015610b1857602081026040850101518401602081510181208089528e60208a01523360408a015260608920600052600960205260016040600020555050600181019050610acd565b50505b503d82f35b610b28610cd3565b6040805160c08101918290529060009060069082845b815481526020019060010190808311610b3e57505050505090505b90565b336000908152600a6020526040812054600160a060020a031615610bb45760405160e560020a62461bcd02815260040180806020018281038252602a8152602001806126bc602a913960400191505060405180910390fd5b600086868686863030604051610bc990610cf2565b961515875294151560208701529215156040808701919091526060860192909252600160a060020a03908116608086015291821660a0850152911660c0830152519081900360e001906000f080158015610c27573d6000803e3d6000fd5b50336000908152600a60205260409020805473ffffffffffffffffffffffffffffffffffffffff1916600160a060020a038316179055979650505050505050565b60006040518381528460208201528260408201526060812060005260096020526040600020548152602081f35b8260068101928215610cc3579160200282015b82811115610cc3578251825591602001919060010190610ca8565b50610ccf929150610cff565b5090565b60c0604051908101604052806006906020820280388339509192915050565b61197780610d1a83390190565b610b5991905b80821115610ccf5760008155600101610d0556fe608060405234801561001057600080fd5b5060405160e080611977833981018060405260e081101561003057600080fd5b508051602080830151604080850151606080870151608088015160a089015160c09099015185519384018652881515808552871515988501899052851515949096018490526002805460ff191690961761ff0019166101009098029790971762ff00001916620100009093029290921790935594959294909391929091600160a060020a038316156100d85760038054600160a060020a031916600160a060020a0385161790555b60059390935560068054600160a060020a03948516600160a060020a0319918216179091556004805492909416911617909155505050506118598061011e6000396000f3fe608060405234801561001057600080fd5b50600436106100d1576000357c010000000000000000000000000000000000000000000000000000000090048063a5c8fa841161008e578063a5c8fa841461025f578063a975f52414610283578063aadc11981461033b578063d6ae4ab51461035e578063dc5853c71461040f578063ea12489f14610417576100d1565b80630cae37f1146100d657806318160ddd1461019b57806344749a88146101b557806354095227146101bd57806364cc4aa5146101c55780637ef50298146101ef575b600080fd5b610187600480360360408110156100ec57600080fd5b81019060208101813564010000000081111561010757600080fd5b82018360208201111561011957600080fd5b8035906020019184600183028401116401000000008311171561013b57600080fd5b91908080601f01602080910402602001604051908101604052809392919081815260200183838082843760009201919091525092955050509035600160a060020a0316915061041f9050565b604080519115158252519081900360200190f35b6101a3610851565b60408051918252519081900360200190f35b6101a3610857565b6101a361085d565b6101cd610863565b6040805193151584529115156020840152151582820152519081900360600190f35b61020c6004803603602081101561020557600080fd5b503561087f565b6040805160ff90951685527affffffffffffffffffffffffffffffffffffffffffffffffffffff1993841660208601529190921683820152600160a060020a039091166060830152519081900360800190f35b6102676108ca565b60408051600160a060020a039092168252519081900360200190f35b6101876004803603606081101561029957600080fd5b8101906020810181356401000000008111156102b457600080fd5b8201836020820111156102c657600080fd5b803590602001918460018302840111640100000000831117156102e857600080fd5b91908080601f0160208091040260200160405190810160405280939291908181526020018383808284376000920191909152509295505050813561ffff1692505060200135600160a060020a03166108d9565b6101876004803603604081101561035157600080fd5b5080359060200135610dc9565b6101876004803603604081101561037457600080fd5b81019060208101813564010000000081111561038f57600080fd5b8201836020820111156103a157600080fd5b803590602001918460018302840111640100000000831117156103c357600080fd5b91908080601f01602080910402602001604051908101604052809392919081815260200183838082843760009201919091525092955050509035600160a060020a03169150610deb9050565b610267611250565b61026761125f565b600654600090600160a060020a0316331461046e5760405160e560020a62461bcd0281526004018080602001828103825260258152602001806116566025913960400191505060405180910390fd5b60025460ff1615156001146104cd576040805160e560020a62461bcd02815260206004820152601b60248201527f74686973206173736574206973206e6f74206d696e7461626c65210000000000604482015290519081900360640190fd5b60006104d88461126e565b60048054604080517ffa7ff56c00000000000000000000000000000000000000000000000000000000815260019381019390935260248301849052600160a060020a0387811660448501529051939450169163fa7ff56c91606480820192602092909190829003018186803b15801561055057600080fd5b505afa158015610564573d6000803e3d6000fd5b505050506040513d602081101561057a57600080fd5b505115156001146105bf5760405160e560020a62461bcd0281526004018080602001828103825260278152602001806117146027913960400191505060405180910390fd5b60608060006105cd87611278565b935050925092508060001415156106185760405160e560020a62461bcd02815260040180806020018281038252602d8152602001806115f8602d913960400191505060405180910390fd5b600061062383611299565b116106625760405160e560020a62461bcd0281526004018080602001828103825260328152602001806117fc6032913960400191505060405180910390fd5b61066b83611299565b6001146106ac5760405160e560020a62461bcd02815260040180806020018281038252602e8152602001806117ce602e913960400191505060405180910390fd5b60006106c66106c1848363ffffffff6112a016565b6112ad565b509150506001548114151561070f5760405160e560020a62461bcd02815260040180806020018281038252602a81526020018061173b602a913960400191505060405180910390fd5b6107236106c185600063ffffffff6112a016565b50600181815590925090505b61073884611299565b8110156108455760006107546106c1868463ffffffff6112a016565b506000818152600760205260409020805491955091925060ff16156107c3576040805160e560020a62461bcd02815260206004820152601360248201527f6f7574707574206e6f7465206578697374732100000000000000000000000000604482015290519081900360640190fd5b805460ff191660011781556107df42600563ffffffff6112c116565b8154600160a060020a039093166b010000000000000000000000027fff0000000000000000000000000000000000000000ffffffffffffffffffffff60d860020a9092046101000265ffffffffff0019909416939093171691909117905560010161072f565b50505050505092915050565b60005481565b60055481565b60015481565b60025460ff808216916101008104821691620100009091041683565b60076020526000908152604090205460ff81169060d860020a61010082048102916601000000000000810490910290600160a060020a036b0100000000000000000000009091041684565b600454600160a060020a031681565b600654600090600160a060020a031633146109285760405160e560020a62461bcd0281526004018080602001828103825260258152602001806116566025913960400191505060405180910390fd5b60006109338561126e565b60048054604080517ffa7ff56c00000000000000000000000000000000000000000000000000000000815261ffff89169381019390935260248301849052600160a060020a0387811660448501529051939450169163fa7ff56c91606480820192602092909190829003018186803b1580156109ae57600080fd5b505afa1580156109c2573d6000803e3d6000fd5b505050506040513d60208110156109d857600080fd5b50511515600114610a1d5760405160e560020a62461bcd0281526004018080602001828103825260278152602001806117146027913960400191505060405180910390fd5b606080600080610a2c89611278565b9350935093509350610a3d8461137c565b610a46836114da565b8015610dba5760025460ff1615610a915760405160e560020a62461bcd0281526004018080602001828103825260378152602001806117976037913960400191505060405180910390fd5b600254610100900460ff1615610adb5760405160e560020a62461bcd02815260040180806020018281038252603781526020018061167b6037913960400191505060405180910390fd5b60025462010000900460ff161515600114610b2a5760405160e560020a62461bcd0281526004018080602001828103825260328152602001806117656032913960400191505060405180910390fd5b6000811215610cbe57600080548282039081018255600160a060020a0384168252600860209081526040808420898552909152909120541015610ba15760405160e560020a62461bcd0281526004018080602001828103825260338152602001806116e16033913960400191505060405180910390fd5b600160a060020a0380831660008181526008602090815260408083208a8452825280832080548785039081900390915560035482517f23b872dd0000000000000000000000000000000000000000000000000000000081526004810196909652306024870152604486019190915290519416936323b872dd93606480820194918390030190829087803b158015610c3757600080fd5b505af1158015610c4b573d6000803e3d6000fd5b505050506040513d6020811015610c6157600080fd5b50511515610cb9576040805160e560020a62461bcd02815260206004820152601060248201527f7472616e73666572206661696c65642100000000000000000000000000000000604482015290519081900360640190fd5b610dba565b600080548290038155600354604080517fa9059cbb000000000000000000000000000000000000000000000000000000008152600160a060020a038681166004830152602482018690529151919092169263a9059cbb92604480820193602093909283900390910190829087803b158015610d3857600080fd5b505af1158015610d4c573d6000803e3d6000fd5b505050506040513d6020811015610d6257600080fd5b50511515610dba576040805160e560020a62461bcd02815260206004820152601060248201527f7472616e73666572206661696c65642100000000000000000000000000000000604482015290519081900360640190fd5b50600198975050505050505050565b3360009081526008602090815260408083209483529390529190912055600190565b600654600090600160a060020a03163314610e3a5760405160e560020a62461bcd0281526004018080602001828103825260258152602001806116566025913960400191505060405180910390fd5b60025460ff610100909104161515600114610e9f576040805160e560020a62461bcd02815260206004820152601b60248201527f74686973206173736574206973206e6f74206275726e61626c65210000000000604482015290519081900360640190fd5b6000610eaa8461126e565b60048054604080517ffa7ff56c00000000000000000000000000000000000000000000000000000000815260019381019390935260248301849052600160a060020a0387811660448501529051939450169163fa7ff56c91606480820192602092909190829003018186803b158015610f2257600080fd5b505afa158015610f36573d6000803e3d6000fd5b505050506040513d6020811015610f4c57600080fd5b50511515600114610f915760405160e560020a62461bcd0281526004018080602001828103825260278152602001806117146027913960400191505060405180910390fd5b6060806000610f9f87611278565b93505092509250806000141515610fea5760405160e560020a62461bcd02815260040180806020018281038252602d8152602001806115f8602d913960400191505060405180910390fd5b6000610ff584611299565b116110345760405160e560020a62461bcd0281526004018080602001828103825260318152602001806116256031913960400191505060405180910390fd5b61103d82611299565b60011461107e5760405160e560020a62461bcd02815260040180806020018281038252602f8152602001806116b2602f913960400191505060405180910390fd5b60006110936106c1858363ffffffff6112a016565b50915050600154811415156110dc5760405160e560020a62461bcd02815260040180806020018281038252602a81526020018061173b602a913960400191505060405180910390fd5b6110f06106c184600063ffffffff6112a016565b50600181815590925090505b61110585611299565b8110156108455760006111216106c1868463ffffffff6112a016565b506000818152600760205260409020805491955091925060ff16600114611192576040805160e560020a62461bcd02815260206004820152601a60248201527f696e707574206e6f746520646f6573206e6f7420657869737421000000000000604482015290519081900360640190fd5b8054600160a060020a038381166b0100000000000000000000009092041614611205576040805160e560020a62461bcd02815260206004820181905260248201527f696e707574206e6f7465206f776e657220646f6573206e6f74206d6174636821604482015290519081900360640190fd5b805460ff1916600217815561122142600563ffffffff6112c116565b815460d860020a9091046601000000000000026affffffffff00000000000019909116179055506001016110fc565b600654600160a060020a031681565b600354600160a060020a031681565b8051602001902090565b60208101516040820151606083015160808401519284019491909301929190565b6020015190565b6020028101604001510190565b602081015160408201519092909160600190565b6040805160058082528183019092526000916060919060208201818038833901905050905060005b838110156113705780600185030360080260020a8581151561130757fe5b047f010000000000000000000000000000000000000000000000000000000000000002828281518110151561133857fe5b9060200101907effffffffffffffffffffffffffffffffffffffffffffffffffffffffffffff1916908160001a9053506001016112e9565b50602001519392505050565b60005b61138882611299565b8110156114d6576000806113a56106c1858563ffffffff6112a016565b50600081815260076020526040902080549294509092509060ff16600114611417576040805160e560020a62461bcd02815260206004820152601a60248201527f696e707574206e6f746520646f6573206e6f7420657869737421000000000000604482015290519081900360640190fd5b8054600160a060020a038481166b010000000000000000000000909204161461148a576040805160e560020a62461bcd02815260206004820181905260248201527f696e707574206e6f7465206f776e657220646f6573206e6f74206d6174636821604482015290519081900360640190fd5b805460ff191660021781556114a642600563ffffffff6112c116565b815460d860020a9091046601000000000000026affffffffff00000000000019909116179055505060010161137f565b5050565b60005b6114e682611299565b8110156114d6576000806115036106c1858563ffffffff6112a016565b50600081815260076020526040902080549294509092509060ff1615611573576040805160e560020a62461bcd02815260206004820152601360248201527f6f7574707574206e6f7465206578697374732100000000000000000000000000604482015290519081900360640190fd5b805460ff1916600117815561158f42600563ffffffff6112c116565b8154600160a060020a039094166b010000000000000000000000027fff0000000000000000000000000000000000000000ffffffffffffffffffffff60d860020a9092046101000265ffffffffff0019909516949094171692909217909155506001016114dd56fe6d696e74207472616e73616374696f6e732063616e6e6f7420686176652061207075626c69632076616c7565216275726e207472616e73616374696f6e732072657175697265206174206c65617374206f6e6520696e707574206e6f74656d6573736167652073656e646572206973206e6f74207265676973747279206f776e6572216275726e61626c65206173736574732063616e6e6f7420626520636f6e76657274656420696e746f207075626c696320746f6b656e73216275726e207472616e73616374696f6e732063616e206f6e6c792068617665206f6e65206f7574707574206e6f74657075626c6963206f776e657220686173206e6f742076616c6964617465642061207472616e73666572206f6620746f6b656e7341434520686173206e6f742076616c6964617465642061206d61746368696e672070726f6f662170726f766964656420746f74616c20737570706c79206e6f746520646f6573206e6f74206d6174636821746869732061737365742063616e6e6f7420626520636f6e76657274656420696e746f207075626c696320746f6b656e73216d696e7461626c65206173736574732063616e6e6f7420626520636f6e76657274656420696e746f207075626c696320746f6b656e73216d696e74207472616e73616374696f6e732063616e206f6e6c792068617665206f6e6520696e707574206e6f74656d696e74207472616e73616374696f6e732072657175697265206174206c65617374206f6e65206f7574707574206e6f7465a165627a7a723058206a79b3eabc529536a5751a3180c197ddf174fc3db0b84a0c6aa5acf6b446789b002973656e64657220646f6573206e6f7420686176652061206c696e6b6564204e6f74652052656769737472796164647265737320616c7265616479206861732061206c696e6b6564204e6f74652052656769737472796f6e6c7920746865206f776e65722063616e20736574207468652070726f6f662074797065216578706563742076616c696461746f72206164647265737320746f2065786973746f6e6c7920746865206f776e65722063616e207365742074686520636f6d6d6f6e207265666572656e636520737472696e6721a165627a7a72305820ddb76141729b8754d6a8f7f5c4a7ca30a78eebeacbc874e6167ec0dd94c4cd930029",
  "source": "pragma solidity >=0.5.0 <0.6.0;\n\nimport \"./NoteRegistry.sol\";\nimport \"../utils/NoteUtils.sol\";\n\n/**\n * @title The AZTEC Cryptography Engine\n * @author AZTEC\n * @dev ACE validates the AZTEC protocol's family of zero-knowledge proofs, which enables\n * digital asset builders to construct fungible confidential digital assets according to the AZTEC token standard.\n **/\ncontract ACE {\n    // the commonReferenceString contains one G1 group element and one G2 group element,\n    // that are created via the AZTEC protocol's trusted setup. All zero-knowledge proofs supported\n    // by ACE use the same common reference string.\n    bytes32[6] private commonReferenceString;\n\n    // TODO: add a consensus mechanism! This contract is for testing purposes only until then\n    address public owner;\n\n    // `validators` contains the validator smart contracts that validate specific proof types\n    mapping(uint16 => address) public validators;\n\n    // `balancedProofs` identifies whether a proof type satisfies a balancing relationship.\n    // Proofs are split into two categories - those that prove a balancing relationship and those that don't\n    //      The latter are 'utility' proofs that can be used by developers to add some requirements on top of\n    //      a proof that satisfies a balancing relationship.\n    //      e.g. for a given asset, one might want to only process a join-split transaction if the transaction\n    //      sender can prove that the new note owners do not own > 50% of the total supply of an asset.\n    //\n    //      For the former category, ACE will record that a given proof has satisfied a balancing relationship in\n    //      `validatedProofs`. This proof can then be queried by confidential assets without having to re-validate\n    //      the proof.\n    //      For example, in a bilateral swap proof - a balancing relationship is satisfied for two confidential assets.\n    //      If a DApp validates this proof, it can then send transfer instructions\n    //          to the relevant confidential digital assets.\n    //      These assets can directly query ACE, which will attest to the cryptographic legitimacy of the\n    //          transfer instruction without having to validate another zero-knowledge proof.\n    mapping(uint16 => bool) public balancedProofs;\n    mapping(bytes32 => bool) private validatedProofs;\n\n    mapping(address => NoteRegistry) public noteRegistries;\n\n    event LogSetProof(uint16 _proofType, address _validatorAddress, bool _isBalanced);\n    event LogSetCommonReferenceString(bytes32[6] _commonReferenceString);\n\n    /**\n    * @dev contract constructor. Sets the owner of ACE.\n    **/\n    constructor() public {\n        owner = msg.sender;\n    }\n\n    /**\n    * @dev Validate an AZTEC zero-knowledge proof. ACE will issue a validation transaction to the smart contract\n    *       linked to `_proofType`. The validator smart contract will have the following interface:\n    *       ```\n    *           function validate(\n    *               bytes _proofData,\n    *               address _sender,\n    *               bytes32[6] _commonReferenceString\n    *           ) public returns (bytes)\n    *       ```\n    * @param _proofType the AZTEC proof type\n    * @param _sender the Ethereum address of the original transaction sender. It is explicitly assumed that\n    *   an asset using ACE supplies this field correctly - if they don't their asset is vulnerable to front-running\n    * Unnamed param is the AZTEC zero-knowledge proof data\n    * @return a `bytes proofOutputs` variable formatted according to the Cryptography Engine standard\n    */\n    function validateProof(\n        uint16 _proofType,\n        address _sender,\n        bytes calldata\n    ) external returns (\n        bytes memory\n    ) {\n        // validate that the provided _proofType maps to a corresponding validator\n        address validatorAddress = validators[_proofType];\n        require(validatorAddress != address(0), \"expect validator address to exist\");\n        assembly {\n            let memPtr := mload(0x40)\n            let _proofData := add(0x04, calldataload(0x44)) // calldata location of start of `proofData`\n\n            // manually construct validator calldata map\n            mstore(add(memPtr, 0x04), 0x100) // location in calldata of the start of `bytes _proofData` (0x100)\n            mstore(add(memPtr, 0x24), _sender)\n            mstore(add(memPtr, 0x44), sload(commonReferenceString_slot))\n            mstore(add(memPtr, 0x64), sload(add(0x01, commonReferenceString_slot)))\n            mstore(add(memPtr, 0x84), sload(add(0x02, commonReferenceString_slot)))\n            mstore(add(memPtr, 0xa4), sload(add(0x03, commonReferenceString_slot)))\n            mstore(add(memPtr, 0xc4), sload(add(0x04, commonReferenceString_slot)))\n            mstore(add(memPtr, 0xe4), sload(add(0x05, commonReferenceString_slot)))\n            calldatacopy(add(memPtr, 0x104), _proofData, add(calldataload(_proofData), 0x20))\n\n            // call our validator smart contract, and validate the call succeeded\n            \n            if iszero(staticcall(gas, validatorAddress, memPtr, add(calldataload(_proofData), 0x124), 0x00, 0x00)) {\n                mstore(0x00, 400) revert(0x00, 0x20) // call failed - proof is invalid!\n            }\n            returndatacopy(memPtr, 0x00, returndatasize) // copy returndata to memory\n            let returnStart := memPtr\n            let proofOutputs := add(memPtr, mload(memPtr)) // proofOutputs points to the start of return data\n            memPtr := add(add(memPtr, 0x20), returndatasize)\n            // does this proof satisfy a balancing relationship? If it does, we need to record the proof\n            mstore(0x00, _proofType) mstore(0x20, balancedProofs_slot)\n            switch sload(keccak256(0x00, 0x40)) // index `balanceProofs[_profType]`\n            case 1 {\n                // we must iterate over each `proofOutput` and record the proof hash\n                let numProofOutputs := mload(add(proofOutputs, 0x20))\n                for { let i := 0 } lt(i, numProofOutputs) { i := add(i, 0x01) } {\n                    // get the location in memory of `proofOutput`\n                    let loc := add(proofOutputs, mload(add(add(proofOutputs, 0x40), mul(i, 0x20))))\n                    let proofHash := keccak256(loc, add(mload(loc), 0x20)) // hash the proof output\n                    // combine the following: proofHash, _proofType, msg.sender\n                    // hashing the above creates a unique key that we can log against this proof, in `validatedProofs`\n                    mstore(memPtr, proofHash)\n                    mstore(add(memPtr, 0x20), _proofType)\n                    mstore(add(memPtr, 0x40), caller)\n                    mstore(0x00, keccak256(memPtr, 0x60)) mstore(0x20, validatedProofs_slot)\n                    sstore(keccak256(0x00, 0x40), 0x01)\n                }\n            }\n            return(returnStart, returndatasize) // return `proofOutputs` to caller\n        }\n    }\n\n    /**\n    * @dev Clear storage variables set when validating zero-knowledge proofs.\n    *      The only address that can clear data from `validatedProofs` is the address that created the proof.\n    *      Function is designed to utilize [EIP-1283](https://github.com/ethereum/EIPs/blob/master/EIPS/eip-1283.md)\n    *      to reduce gas costs. It is highly likely that any storage variables set by `validateProof`\n    *      are only required for the duration of a single transaction.\n    *      E.g. a decentralized exchange validating a swap proof and sending transfer instructions to\n    *      two confidential assets.\n    *      This method allows the calling smart contract to recover most of the gas spent by setting `validatedProofs`\n    * @param _proofType the AZTEC proof type\n    * Unnamed param is a dynamic array of proof hashes\n    */\n    function clearProofByHashes(uint16 _proofType, bytes32[] calldata) external {\n        assembly {\n            let memPtr := mload(0x40)\n            let proofHashes := add(0x04, calldataload(0x24))\n            let length := calldataload(proofHashes)\n            mstore(add(memPtr, 0x20), _proofType)\n            mstore(add(memPtr, 0x40), caller)\n            mstore(0x20, validatedProofs_slot)\n            for { let i := 0 } lt(i, length) { i := add(i, 0x01) } {\n                let proofHash := calldataload(add(add(proofHashes, mul(i, 0x20)), 0x20))\n                switch iszero(proofHash)\n                case 1 {\n                    mstore(0x00, 400)\n                    revert(0x00, 0x20)\n                }\n                mstore(memPtr, proofHash)\n                mstore(0x00, keccak256(memPtr, 0x60))\n                sstore(keccak256(0x00, 0x40), 0x00)\n            }\n        }\n    }\n\n    /**\n    * @dev Validate a previously validated AZTEC proof via its hash\n    *      This enables confidential assets to receive transfer instructions from a Dapp that\n    *      has already validated an AZTEC proof that satisfies a balancing relationship.\n    * @param _proofType the AZTEC proof type\n    * @param _proofHash the hash of the `proofOutput` received by the asset\n    * @param _sender the Ethereum address of the contract issuing the transfer instruction\n    * @return a boolean that signifies whether the corresponding AZTEC proof has been validated\n    */\n    function validateProofByHash(\n        uint16 _proofType,\n        bytes32 _proofHash,\n        address _sender\n    ) external view returns (bool) {\n        assembly {\n            let memPtr := mload(0x40)\n            mstore(memPtr, _proofHash)\n            mstore(add(memPtr, 0x20), _proofType)\n            mstore(add(memPtr, 0x40), _sender)\n            mstore(0x00, keccak256(memPtr, 0x60))\n            mstore(0x20, validatedProofs_slot)\n            mstore(memPtr, sload(keccak256(0x00, 0x40)))\n            return(memPtr, 0x20)\n        }\n    }\n\n    function createNoteRegistry(\n        bool _canMint,\n        bool _canBurn,\n        bool _canConvert,\n        uint256 _scalingFactor,\n        address _linkedToken\n    ) public returns (address) {\n        require(noteRegistries[msg.sender] == NoteRegistry(0), \"address already has a linked Note Registry\");\n        NoteRegistry registry = new NoteRegistry(\n            _canMint,\n            _canBurn,\n            _canConvert,\n            _scalingFactor,\n            _linkedToken,\n            address(this),\n            address(this)\n        );\n        noteRegistries[msg.sender] = registry;\n        return address(registry);\n    }\n\n    function updateNoteRegistry(\n        bytes memory _proofOutput, \n        uint16 _proofType, \n        address _proofSender\n    ) public returns (bool) {\n        NoteRegistry registry = noteRegistries[msg.sender];\n        require(registry != NoteRegistry(0), \"sender does not have a linked Note Registry\");\n        require(registry.updateNoteRegistry(_proofOutput, _proofType, _proofSender), \"update failed!\");\n        return true;\n    }\n\n    /**\n    * @dev Set the common reference string\n    *      If the trusted setup is re-run, we will need to be able to change the crs\n    * @param _commonReferenceString the new commonReferenceString\n    */\n    function setCommonReferenceString(bytes32[6] memory _commonReferenceString) public {\n        require(msg.sender == owner, \"only the owner can set the common reference string!\");\n        commonReferenceString = _commonReferenceString;\n        emit LogSetCommonReferenceString(_commonReferenceString);\n    }\n\n    /**\n    * @dev Adds or modifies a proofType into the Cryptography Engine.\n    *      This method links a given `_proofType` to a smart contract validator.\n    * @param _proofType the AZTEC proof type\n    * @param _validatorAddress the address of the smart contract validator\n    * @param _isBalanced does this proof satisfy a balancing relationship?\n    */\n    function setProof(\n        uint16 _proofType,\n        address _validatorAddress,\n        bool _isBalanced\n    ) public {\n        require(msg.sender == owner, \"only the owner can set the proof type!\");\n        validators[_proofType] = _validatorAddress;\n        balancedProofs[_proofType] = _isBalanced;\n        emit LogSetProof(_proofType, _validatorAddress, _isBalanced);\n    }\n    \n    /**\n    * @dev Returns the validator address for a given proof type\n    */\n    function getValidatorAddress(uint16 _proofType) public view returns (address) {\n        return validators[_proofType];\n    }\n    \n    /**\n    * @dev Returns the validator address for a given proof type\n    */\n    function getIsProofBalanced(uint16 _proofType) public view returns (bool) {\n        return balancedProofs[_proofType];\n    }\n\n    /**\n    * @dev Returns the common reference string.\n    * we use a custom getter for `commonReferenceString` - the default getter created by making the storage\n    * variable public indexes individual elements of the array, and we want to return the whole array\n    */\n    function getCommonReferenceString() public view returns (bytes32[6] memory) {\n        return commonReferenceString;\n    }\n}\n",
  "sourcePath": "/home/arsalen/Desktop/draft/AZTECProtocol/aztec-demo-js/protocol/contracts/ACE/ACE.sol",
  "compiler": {
    "name": "solc",
    "version": "0.5.4+commit.9549d8ff.Emscripten.clang"
  },
  "schemaVersion": "3.0.2",
  "updatedAt": "2019-03-03T05:16:21.025Z",
  "devdoc": {
    "author": "AZTEC",
    "details": "ACE validates the AZTEC protocol's family of zero-knowledge proofs, which enables digital asset builders to construct fungible confidential digital assets according to the AZTEC token standard.*",
    "methods": {
      "clearProofByHashes(uint16,bytes32[])": {
        "details": "Clear storage variables set when validating zero-knowledge proofs.     The only address that can clear data from `validatedProofs` is the address that created the proof.     Function is designed to utilize [EIP-1283](https://github.com/ethereum/EIPs/blob/master/EIPS/eip-1283.md)     to reduce gas costs. It is highly likely that any storage variables set by `validateProof`     are only required for the duration of a single transaction.     E.g. a decentralized exchange validating a swap proof and sending transfer instructions to     two confidential assets.     This method allows the calling smart contract to recover most of the gas spent by setting `validatedProofs`",
        "params": {
          "_proofType": "the AZTEC proof type Unnamed param is a dynamic array of proof hashes"
        }
      },
      "constructor": {
        "details": "contract constructor. Sets the owner of ACE.*"
      },
      "getCommonReferenceString()": {
        "details": "Returns the common reference string. we use a custom getter for `commonReferenceString` - the default getter created by making the storage variable public indexes individual elements of the array, and we want to return the whole array"
      },
      "getIsProofBalanced(uint16)": {
        "details": "Returns the validator address for a given proof type"
      },
      "getValidatorAddress(uint16)": {
        "details": "Returns the validator address for a given proof type"
      },
      "setCommonReferenceString(bytes32[6])": {
        "details": "Set the common reference string     If the trusted setup is re-run, we will need to be able to change the crs",
        "params": {
          "_commonReferenceString": "the new commonReferenceString"
        }
      },
      "setProof(uint16,address,bool)": {
        "details": "Adds or modifies a proofType into the Cryptography Engine.     This method links a given `_proofType` to a smart contract validator.",
        "params": {
          "_isBalanced": "does this proof satisfy a balancing relationship?",
          "_proofType": "the AZTEC proof type",
          "_validatorAddress": "the address of the smart contract validator"
        }
      },
      "validateProof(uint16,address,bytes)": {
        "details": "Validate an AZTEC zero-knowledge proof. ACE will issue a validation transaction to the smart contract      linked to `_proofType`. The validator smart contract will have the following interface:      ```          function validate(              bytes _proofData,              address _sender,              bytes32[6] _commonReferenceString          ) public returns (bytes)      ```",
        "params": {
          "_proofType": "the AZTEC proof type",
          "_sender": "the Ethereum address of the original transaction sender. It is explicitly assumed that  an asset using ACE supplies this field correctly - if they don't their asset is vulnerable to front-running Unnamed param is the AZTEC zero-knowledge proof data"
        },
        "return": "a `bytes proofOutputs` variable formatted according to the Cryptography Engine standard"
      },
      "validateProofByHash(uint16,bytes32,address)": {
        "details": "Validate a previously validated AZTEC proof via its hash     This enables confidential assets to receive transfer instructions from a Dapp that     has already validated an AZTEC proof that satisfies a balancing relationship.",
        "params": {
          "_proofHash": "the hash of the `proofOutput` received by the asset",
          "_proofType": "the AZTEC proof type",
          "_sender": "the Ethereum address of the contract issuing the transfer instruction"
        },
        "return": "a boolean that signifies whether the corresponding AZTEC proof has been validated"
      }
    },
    "title": "The AZTEC Cryptography Engine"
  },
  "userdoc": {
    "methods": {}
  }
}