{
  "contractName": "DividendComputationABIEncoderTest",
  "abi": [
    {
      "constant": true,
      "inputs": [
        {
          "name": "",
          "type": "bytes"
        },
        {
          "name": "",
          "type": "address"
        },
        {
          "name": "",
          "type": "uint256[6]"
        }
      ],
      "name": "validateDividendComputation",
      "outputs": [
        {
          "name": "",
          "type": "bytes"
        }
      ],
      "payable": false,
      "stateMutability": "pure",
      "type": "function"
    }
  ],
  "bytecode": "0x608060405234801561001057600080fd5b50610372806100206000396000f3fe608060405234801561001057600080fd5b5060043610610047577c01000000000000000000000000000000000000000000000000000000006000350463484b99d5811461004c575b600080fd5b6100d8600480360361010081101561006357600080fd5b81019060208101813564010000000081111561007e57600080fd5b82018360208201111561009057600080fd5b803590602001918460018302840111640100000000831117156100b257600080fd5b919350915073ffffffffffffffffffffffffffffffffffffffff8135169060200161014d565b6040805160208082528351818301528351919283929083019185019080838360005b838110156101125781810151838201526020016100fa565b50505050905090810190601f16801561013f5780820380516001836020036101000a031916815260200191505b509250505060405180910390f35b606061015761015f565b949350505050565b6101843561010401803560016101a435610124016101c435610124016101e4356101440160016101a05260606101c05260a06102005260006102405260008061026052610280856020820152602086026102c00160005b878110156102435760c0810260208b0101608060408201600037608060002060c05260a083528735602084015260c05160408401526040606084015260ff60020a600160608301351602604082013517608084015260ff60020a600160a0830135160260808201351760a08401528383036020830260408601015260c083019250506001810190506101b6565b50908103601f1981016102805260a00161022052858703602080830182905260409102820101865b888110156103185760c0810260208b0101602089830302860135806040880301356080604084016000378060a001855260208b85030289013560208601526080600020604086015280604001606086015260ff60020a6001602051160260005117608086015260ff60020a600160605116026040511760a08601528060208903830160c087013785850360208c86030260408801015260208551018501945050505060018101905061026b565b5060208282030382526102808103806080016101e0528060e001610180526020610160528061012001610160f3fea165627a7a72305820858366df144614515a7b78441face8eb6519fedd030707eeccb98374b45d20740029",
  "source": "pragma solidity >=0.5.0 <0.6.0;\n\n\nlibrary DividendComputationABIEncoder {\n    /**\n    * New calldata map\n    * 0x04:0x24      = calldata location of proofData byte array  // proof data byte array\n    * 0x24:0x44      = message sender // address\n    * 0x44:0x64      = h_x     // crs\n    * 0x64:0x84      = h_y     // crs\n    * 0x84:0xa4      = t2_x0   // crs\n    * 0xa4:0xc4      = t2_x1   // crs\n    * 0xc4:0xe4      = t2_y0   // crs\n    * 0xe4:0x104     = t2_y1   // crs\n    * 0x104:0x124    = length of proofData byte array\n    * 0x124:0x144    = challenge\n    * 0x144:0x164    = za\n    * 0x164:0x184    = zb\n    * 0x184:0x1a4    = offset in byte array to notes\n    * 0x1a4:0x1c4    = offset in byte array to inputOwners\n    * 0x1c4:0x1e4    = offset in byte array to outputOwners\n    * 0x1e4:0x204    = offset in byte array to metadata\n    */ \n    function encodeAndExit() internal pure {\n        assembly {\n            // set up initial variables\n            let notes := add(0x104, calldataload(0x184))\n            let n := calldataload(notes)\n            let m := 1\n            let inputOwners := add(0x124, calldataload(0x1a4)) // one word after outputOwners = 1st\n            let outputOwners := add(0x124, calldataload(0x1c4)) // one word after outputOwners = 1st\n            let metadata := add(0x144, calldataload(0x1e4)) // two words after metadata = 1st\n\n\n            // `returndata` starts at 0x160\n            // `proofOutputs` starts at 0x180\n            // 0x160 - 0x180 = relative offset in returndata to first bytes argument (0x20)\n            // 0x180 - 0x1a0 = byte length of `proofOutputs`\n            // 0x1a0 - 0x1c0 = number of `proofOutputs` entries (1)\n            // 0x1c0 - 0x1e0 = relative memory offset between `v` and start of `proofOutput`\n\n            // `proofOutput` - t, starts at 0x1e0\n            // 0x1e0 - 0x200 = length of `proofOutput`\n            // 0x200 - 0x220 = relative offset between `t` and `inputNotes`\n            // 0x220 - 0x240 = relative offset between `t` and `outputNotes`\n            // 0x240 - 0x260 = `publicOwner`\n            // 0x260 - 0x280 = `publicValue`\n\n            // `inputNotes` starts at 0x280\n            // structure of `inputNotes` and `outputNotes`\n            // 0x00 - 0x20 = byte length of notes array\n            // 0x20 - 0x40 = number of notes `i`\n            // the next `i` consecutive blocks of 0x20-sized memory contain relative offset between\n            // start of notes array and the location of the `note`\n\n            // structure of a `note`\n            // 0x00 - 0x20 = size of `note`\n            // 0x20 - 0x40 = `owner`\n            // 0x40 - 0x60 = `noteHash`\n            // 0x60 - 0x80 = size of note `data`\n            // 0x80 - 0xa0 = compressed note coordinate `gamma` (part of `data`)\n            // 0xa0 - 0xc0 = compressed note coordinate `sigma` (part of `data`)\n            // 0xc0 - ???? = remaining note metadata\n\n            // `proofOutputs` must form a monolithic block of memory that we can return.\n            // `s` points to the memory location of the start of the current note\n            // `inputPtr` points to the start of the current `notes` dynamic bytes array\n\n            // length of proofOutputs is at s\n            mstore(0x1a0, 0x01)                            // number of proofs\n            mstore(0x1c0, 0x60)                            // offset to 1st proof\n            // length of proofOutput is at s + 0x60\n            mstore(0x200, 0xa0)                            // location of inputNotes\n            // location of outputNotes is at s + 0xa0\n            mstore(0x240, 0x00)             // publicOwner\n            // store kPublic. If kPublic is negative, store correct signed representation,\n            // relative to 2^256, not to the order of the bn128 group\n            let kPublic := 0\n            mstore(0x260, kPublic)\n\n            let inputPtr := 0x280                                 // point to inputNotes\n            mstore(add(inputPtr, 0x20), m)                        // number of input notes\n            // set note pointer, offsetting lookup indices for each input note\n            let s := add(0x2c0, mul(m, 0x20))\n\n            for { let i := 0 } lt(i, m) { i := add(i, 0x01) } {\n                let noteIndex := add(add(notes, 0x20), mul(i, 0xc0))\n                // copy note data to 0x00 - 0x80\n                calldatacopy(0x00, add(noteIndex, 0x40), 0x80) // get gamma, sigma\n\n                // construct note hash\n                mstore(0xc0, keccak256(0x00, 0x80))\n\n                // store note length in `s`\n                mstore(s, 0xa0)\n                // store note owner in `s + 0x20`\n                mstore(add(s, 0x20), calldataload(inputOwners))\n            \n                // store note hash in `s + 0x40`\n                mstore(add(s, 0x40), mload(0xc0))\n                // store note metadata length in `s + 0x60` (just the coordinates)\n                mstore(add(s, 0x60), 0x40)\n                // store compressed note coordinate gamma in `s + 0x80`\n                mstore(\n                add(s, 0x80),\n                or(\n                    calldataload(add(noteIndex, 0x40)),\n                    mul(\n                    and(calldataload(add(noteIndex, 0x60)), 0x01),\n                    0x8000000000000000000000000000000000000000000000000000000000000000\n                    )\n                )\n                )\n                // store compressed note coordinate sigma in `s + 0xa0`\n                mstore(\n                add(s, 0xa0),\n                or(\n                    calldataload(add(noteIndex, 0x80)),\n                    mul(\n                    and(calldataload(add(noteIndex, 0xa0)), 0x01),\n                    0x8000000000000000000000000000000000000000000000000000000000000000\n                    )\n                )\n                )\n                // compute the relative offset to index this note in our returndata\n                mstore(add(add(inputPtr, 0x40), mul(i, 0x20)), sub(s, inputPtr)) // relative offset to note\n        \n                // increase s by note length\n                s := add(s, 0xc0)\n            }\n\n            // transition between input and output notes\n            mstore(0x280, sub(sub(s, inputPtr), 0x20)) // store total length of inputNotes at first index of inputNotes \n            mstore(0x220, add(0xa0, sub(s, inputPtr))) // store relative memory offset to outputNotes\n            inputPtr := s\n            mstore(add(inputPtr, 0x20), sub(n, m)) // store number of output notes\n            s := add(s, add(0x40, mul(sub(n, m), 0x20)))\n\n            // output notes\n            for { let i := m } lt(i, n) { i := add(i, 0x01) } {\n                // get note index\n                let noteIndex := add(add(notes, 0x20), mul(i, 0xc0))\n                // get pointer to metadata\n                let metadataIndex := calldataload(add(metadata, mul(sub(i, m), 0x20)))\n                // get size of metadata\n                let metadataLength := calldataload(add(sub(metadata, 0x40), metadataIndex))\n\n                // copy note data to 0x00 - 0x80\n                calldatacopy(0x00, add(noteIndex, 0x40), 0x80) // get gamma, sigma\n\n                // store note length in `s`\n                mstore(s, add(0xa0, metadataLength))\n                // store the owner of the note in `s + 0x20`\n                mstore(add(s, 0x20), calldataload(add(outputOwners, mul(sub(i, m), 0x20))))\n                // store note hash\n                mstore(add(s, 0x40), keccak256(0x00, 0x80))\n                // store note metadata length if `s + 0x60`\n                mstore(add(s, 0x60), add(0x40, metadataLength))\n                // store compressed note coordinate gamma in `s + 0x80`\n                mstore(\n                    add(s, 0x80),\n                    or(\n                        mload(0x00),\n                        mul(\n                            and(mload(0x20), 0x01),\n                            0x8000000000000000000000000000000000000000000000000000000000000000\n                        )\n                    )\n                )\n                // store compressed note coordinate sigma in `s + 0xa0`\n                mstore(\n                add(s, 0xa0),\n                or(\n                    mload(0x40),\n                    mul(\n                        and(mload(0x60), 0x01),\n                        0x8000000000000000000000000000000000000000000000000000000000000000\n                    )\n                )\n                )\n                // copy metadata into `s + 0xc0`\n                calldatacopy(add(s, 0xc0), add(metadataIndex, sub(metadata, 0x20)), metadataLength)\n                // compute the relative offset to index this note in our returndata\n                mstore(add(add(inputPtr, 0x40), mul(sub(i, m), 0x20)), sub(s, inputPtr)) // relative offset to note\n\n                // increase s by note length\n                s := add(s, add(mload(s), 0x20))\n            }\n\n            // cleanup. the length of the outputNotes = s - inputPtr\n            mstore(inputPtr, sub(sub(s, inputPtr), 0x20)) // store length of outputNotes at start of outputNotes\n            let notesLength := sub(s, 0x280)\n            mstore(0x1e0, add(0x80, notesLength)) // store length of proofOutput at 0x160\n            mstore(0x180, add(0xe0, notesLength)) // store length of proofOutputs at 0x100\n            // mstore(0x00 , notesLength) return(0x00, 0x20)\n            mstore(0x160, 0x20)\n            return(0x160, add(0x120, notesLength)) // return the final byte array\n        }\n    }\n}\n\n\ncontract DividendComputationABIEncoderTest {\n    function validateDividendComputation(\n        bytes calldata, \n        address, \n        uint[6] calldata\n    ) \n        external \n        pure \n        returns (bytes memory) \n    {\n        DividendComputationABIEncoder.encodeAndExit();\n    }\n}\n",
  "sourcePath": "/home/arsalen/Desktop/draft/AZTECProtocol/aztec-demo-js/protocol/contracts/ACE/validators/dividendComputation/DividendComputationABIEncoder.sol",
  "compiler": {
    "name": "solc",
    "version": "0.5.4+commit.9549d8ff.Emscripten.clang"
  },
  "schemaVersion": "3.0.2",
  "updatedAt": "2019-03-03T05:16:18.510Z",
  "devdoc": {
    "methods": {}
  },
  "userdoc": {
    "methods": {}
  }
}