{
  "contractName": "Doorbell",
  "abi": [
    {
      "constant": true,
      "inputs": [
        {
          "name": "",
          "type": "address"
        }
      ],
      "name": "addressBlockMap",
      "outputs": [
        {
          "name": "",
          "type": "uint256"
        }
      ],
      "payable": false,
      "stateMutability": "view",
      "type": "function",
      "signature": "0xd7413969"
    },
    {
      "constant": false,
      "inputs": [],
      "name": "setBlock",
      "outputs": [],
      "payable": false,
      "stateMutability": "nonpayable",
      "type": "function",
      "signature": "0xfe5afe51"
    }
  ],
  "bytecode": "0x608060405234801561001057600080fd5b5060ef8061001f6000396000f3fe6080604052348015600f57600080fd5b5060043610604e577c01000000000000000000000000000000000000000000000000000000006000350463d741396981146053578063fe5afe51146095575b600080fd5b608360048036036020811015606757600080fd5b503573ffffffffffffffffffffffffffffffffffffffff16609d565b60408051918252519081900360200190f35b609b60af565b005b60006020819052908152604090205481565b33600090815260208190526040902043905556fea165627a7a72305820d02b5cbef4bce0a183988d953c29767403dfb58c2100b09c5f6926e43a82572f0029",
  "source": "pragma solidity >=0.5.0 <0.6.0;\n\n/**\n * @title Maps a user's Ethereum address to the block number of a block that contains a transaction sent by the address\n * @author Tom Waite\n * @dev Purpose of this contract is to enable an AZTEC Dapp to get a user's public key from their Ethereum address.\n *      The public key is required in order to generate AZTEC note shared secrets.\n **/\ncontract Doorbell {\n\n    mapping(address => uint) public addressBlockMap;\n\n    /**\n    * @dev Writes to ```addressBlockMap``` to map from msg.sender to block.number\n    **/\n    function setBlock() external {\n        uint number = block.number; \n        addressBlockMap[msg.sender] = number;        \n    }\n}\n",
  "sourcePath": "/home/arsalen/Desktop/draft/AZTECProtocol/aztec-demo-js/protocol/contracts/utils/Doorbell.sol",
  "compiler": {
    "name": "solc",
    "version": "0.5.4+commit.9549d8ff.Emscripten.clang"
  },
  "schemaVersion": "3.0.2",
  "updatedAt": "2019-03-03T05:16:21.321Z",
  "devdoc": {
    "author": "Tom Waite",
    "details": "Purpose of this contract is to enable an AZTEC Dapp to get a user's public key from their Ethereum address.     The public key is required in order to generate AZTEC note shared secrets.*",
    "methods": {
      "setBlock()": {
        "details": "Writes to ```addressBlockMap``` to map from msg.sender to block.number*"
      }
    },
    "title": "Maps a user's Ethereum address to the block number of a block that contains a transaction sent by the address"
  },
  "userdoc": {
    "methods": {}
  }
}