{
  "contractName": "JoinSplitABIEncoderTest",
  "abi": [
    {
      "constant": true,
      "inputs": [],
      "name": "EIP712_DOMAIN_HASH",
      "outputs": [
        {
          "name": "",
          "type": "bytes32"
        }
      ],
      "payable": false,
      "stateMutability": "view",
      "type": "function"
    },
    {
      "constant": true,
      "inputs": [
        {
          "name": "",
          "type": "bytes"
        },
        {
          "name": "",
          "type": "address"
        },
        {
          "name": "",
          "type": "uint256[6]"
        }
      ],
      "name": "validateJoinSplit",
      "outputs": [
        {
          "name": "",
          "type": "bytes"
        }
      ],
      "payable": false,
      "stateMutability": "view",
      "type": "function"
    }
  ],
  "bytecode": "0x7f454950373132446f6d61696e280000000000000000000000000000000000000060a09081527f737472696e67206e616d652c000000000000000000000000000000000000000060ad527f737472696e672076657273696f6e2c000000000000000000000000000000000060b9527f6164647265737320766572696679696e67436f6e74726163740000000000000060c8527f290000000000000000000000000000000000000000000000000000000000000060e152604260808181529120601960e2527f415a5445435f43525950544f4752415048595f454e47494e4500000000000000610102526001610122527f3100000000000000000000000000000000000000000000000000000000000000610142526101829081527fc8066e2c715ce196630b273cd256d8959d5b9fefc55e9e6d999fb0f08bb7f75f6101a2527fc89efdaa54c0f20c7adf612882df0950f5a951637e0307cdcb4c672f298b8bc66101c252306101e2526101628290526102026040522060005561049d806101876000396000f3fe608060405234801561001057600080fd5b5060043610610052577c010000000000000000000000000000000000000000000000000000000060003504637a26becd8114610057578063e306f77914610158575b600080fd5b6100e3600480360361010081101561006e57600080fd5b81019060208101813564010000000081111561008957600080fd5b82018360208201111561009b57600080fd5b803590602001918460018302840111640100000000831117156100bd57600080fd5b919350915073ffffffffffffffffffffffffffffffffffffffff81351690602001610172565b6040805160208082528351818301528351919283929083019185019080838360005b8381101561011d578181015183820152602001610105565b50505050905090810190601f16801561014a5780820380516001836020036101000a031916815260200191505b509250505060405180910390f35b610160610187565b60408051918252519081900360200190f35b606061017f60005461018d565b949350505050565b60005481565b61018435610104018035610124356101c435610124016101a435610124016101e435610144017f6c1a087ea32e7586c4241d8ad29826c79af0e5ae5c44ca4be88caa5a18b99446608052600160a0526101443560e0526024356101005261190161012052866101405260016101a05260606101c05260a061020052610164356102405260a060c0873502870103357f183227397098d014dc2822db40c0ac2e9419f4243cdcb848a1f0fac9f800000081116001811461025157801561027d57610283565b7f30644e72e131a029b85045b68181585d2833e84879b9709143e1f593f0000001820361026052610283565b81610260525b506102a08590526102806102c0602087020160005b8781101561036e5760c0810260208b0101606082028701608060408301600037608060002060c05260a060802061016052604261013e2060005260ff81351660205260406020820160403760a0845260208085016080600060015afa15602085015115171561030d5761019060005260206000fd5b60c05160408501526040606085015260ff60020a600160608401351602604083013517608085015260ff60020a600160a0840135160260808301351760a08501528484036020840260408701015260c0840193505050600181019050610298565b50908103601f1981016102805260a00161022052858703602080830182905260409102820101865b888110156104435760c0810260208b0101602089830302860135806040880301356080604084016000378060a001855260208b8503028a013560208601526080600020604086015280604001606086015260ff60020a6001602051160260005117608086015260ff60020a600160605116026040511760a08601528060208903830160c087013785850360208c860302604088010152602085510185019450505050600181019050610396565b5060208282030382526102808103806080016101e0528060e001610180526020610160528061012001610160f3fea165627a7a723058208cbc25db45fba89d16a81d079ea7f62b61d45c78a5199fd18158cf0e7dbad48c0029",
  "source": "pragma solidity >=0.5.0 <0.6.0;\n\nimport \"../../../libs/LibEIP712.sol\";\n\nlibrary JoinSplitABIEncoder {\n    /**\n     * Calldata map\n     * 0x04:0x24      = calldata location of proofData byte array\n     * 0x24:0x44      = message sender\n     * 0x44:0x64      = h_x\n     * 0x64:0x84      = h_y\n     * 0x84:0xa4      = t2_x0\n     * 0xa4:0xc4      = t2_x1\n     * 0xc4:0xe4      = t2_y0\n     * 0xe4:0x104     = t2_y1\n     * 0x104:0x124    = length of proofData byte array\n     * 0x124:0x144    = m\n     * 0x144:0x164    = challenge\n     * 0x164:0x184    = publicOwner\n     * 0x184:0x1a4    = offset in byte array to notes\n     * 0x1a4:0x1c4    = offset in byte array to inputSignatures\n     * 0x1c4:0x2e4    = offset in byte array to outputOwners\n     * 0x1e4:0x204    = offset in byte array to metadata\n     */\n    function encodeAndExit(bytes32 domainHash) internal view {\n        assembly {\n            // set up initial variables\n            let notes := add(0x104, calldataload(0x184))\n            let n := calldataload(notes)\n            let m := calldataload(0x124)\n            let outputOwners := add(0x124, calldataload(0x1c4)) // one word after outputOwners = 1st\n            let signatures := add(0x124, calldataload(0x1a4)) // one word after signatures = 1st\n            let metadata := add(0x144, calldataload(0x1e4)) // two words after metadata = 1st\n\n            // memory map of `proofOutputs`\n\n            // 0x00 - 0x160  = scratch data for EIP712 signature computation and note hash computation\n            // ACE_NOTE_SIGNATURE struct hash variables\n            // 0x80 = struct hash\n            // 0xa0 = proofId (1)\n            // 0xc0 = noteHash\n            // 0xe0 = challenge\n            // 0x100 = sender\n            // struct hash of 'ACE_NOTE_SIGNATURE'\n            mstore(0x80, 0x6c1a087ea32e7586c4241d8ad29826c79af0e5ae5c44ca4be88caa5a18b99446)\n            mstore(0xa0, 0x01)\n            mstore(0xe0, calldataload(0x144)) // challenge\n            mstore(0x100, calldataload(0x24))\n\n            // EIP712 Signature variables\n            // 0x13e - 0x140 = 0x1901\n            // 0x140 - 0x160 = domainHash\n            // 0x160 - 0x180 = structHash\n            mstore(0x120, 0x1901)\n            mstore(0x140, domainHash) // domain hash\n\n            // `returndata` starts at 0x160\n            // `proofOutputs` starts at 0x180\n            // 0x160 - 0x180 = relative offset in returndata to first bytes argument (0x20)\n            // 0x180 - 0x1a0 = byte length of `proofOutputs`\n            // 0x1a0 - 0x1c0 = number of `proofOutputs` entries (1)\n            // 0x1c0 - 0x1e0 = relative memory offset between `v` and start of `proofOutput`\n\n            // `proofOutput` - t, starts at 0x1e0\n            // 0x1e0 - 0x200 = length of `proofOutput`\n            // 0x200 - 0x220 = relative offset between `t` and `inputNotes`\n            // 0x220 - 0x240 = relative offset between `t` and `outputNotes`\n            // 0x240 - 0x260 = `publicOwner`\n            // 0x260 - 0x280 = `publicValue`\n\n            // `inputNotes` starts at 0x280\n            // structure of `inputNotes` and `outputNotes`\n            // 0x00 - 0x20 = byte length of notes array\n            // 0x20 - 0x40 = number of notes `i`\n            // the next `i` consecutive blocks of 0x20-sized memory contain relative offset between\n            // start of notes array and the location of the `note`\n\n            // structure of a `note`\n            // 0x00 - 0x20 = size of `note`\n            // 0x20 - 0x40 = `owner`\n            // 0x40 - 0x60 = `noteHash`\n            // 0x60 - 0x80 = size of note `data`\n            // 0x80 - 0xa0 = compressed note coordinate `gamma` (part of `data`)\n            // 0xa0 - 0xc0 = compressed note coordinate `sigma` (part of `data`)\n            // 0xc0 - ???? = remaining note metadata\n\n            // `proofOutputs` must form a monolithic block of memory that we can return.\n            // `s` points to the memory location of the start of the current note\n            // `inputPtr` points to the start of the current `notes` dynamic bytes array\n\n            // length of proofOutputs is at s\n            mstore(0x1a0, 0x01)                            // number of proofs\n            mstore(0x1c0, 0x60)                            // offset to 1st proof\n            // length of proofOutput is at s + 0x60\n            mstore(0x200, 0xa0)                            // location of inputNotes\n            // location of outputNotes is at s + 0xa0\n            mstore(0x240, calldataload(0x164))             // publicOwner\n            // store kPublic. If kPublic is negative, store correct signed representation,\n            // relative to 2^256, not to the order of the bn128 group\n            let kPublic := calldataload(sub(add(notes, mul(calldataload(notes), 0xc0)), 0xa0))\n            switch gt(kPublic, 10944121435919637611123202872628637544274182200208017171849102093287904247808)\n            case 1 {\n                mstore(0x260, sub(kPublic, 0x30644e72e131a029b85045b68181585d2833e84879b9709143e1f593f0000001))\n            }\n            case 0 {\n                mstore(0x260, kPublic)\n            }\n\n            let inputPtr := 0x280                                 // point to inputNotes\n            mstore(add(inputPtr, 0x20), m)                        // number of input notes\n            // set note pointer, offsetting lookup indices for each input note\n            let s := add(0x2c0, mul(m, 0x20))\n\n            for { let i := 0 } lt(i, m) { i := add(i, 0x01) } {\n                let noteIndex := add(add(notes, 0x20), mul(i, 0xc0))\n                // get pointer to input signatures\n                let signatureIndex := add(signatures, mul(i, 0x60))\n                // copy note data to 0x00 - 0x80\n                calldatacopy(0x00, add(noteIndex, 0x40), 0x80) // get gamma, sigma\n\n                // construct EIP712 signature parameters\n                mstore(0xc0, keccak256(0x00, 0x80)) // note hash\n                // construct EIP712 signature message\n                mstore(0x160, keccak256(0x80, 0xa0))\n                mstore(0x00, keccak256(0x13e, 0x42))\n                // recover address of EIP712 signature\n                mstore(0x20, and(calldataload(signatureIndex), 0xff)) // get 8-bit v\n                calldatacopy(0x40, add(signatureIndex, 0x20), 0x40) // copy r, s into memory\n\n                // store note length in `s`\n                mstore(s, 0xa0)\n                // store note owner in `s + 0x20`. If ECDSA recovery fails, or signing address is `0`, throw an error\n                if or(\n                iszero(mload(add(s, 0x20))),\n                iszero(staticcall(gas, 0x01, 0x00, 0x80, add(s, 0x20), 0x20))\n                ) {\n                mstore(0x00, 400) revert(0x00, 0x20)\n                }\n                // store note hash in `s + 0x40`\n                mstore(add(s, 0x40), mload(0xc0))\n                // store note metadata length in `s + 0x60` (just the coordinates)\n                mstore(add(s, 0x60), 0x40)\n                // store compressed note coordinate gamma in `s + 0x80`\n                mstore(\n                add(s, 0x80),\n                or(\n                    calldataload(add(noteIndex, 0x40)),\n                    mul(\n                    and(calldataload(add(noteIndex, 0x60)), 0x01),\n                    0x8000000000000000000000000000000000000000000000000000000000000000\n                    )\n                )\n                )\n                // store compressed note coordinate sigma in `s + 0xa0`\n                mstore(\n                add(s, 0xa0),\n                or(\n                    calldataload(add(noteIndex, 0x80)),\n                    mul(\n                    and(calldataload(add(noteIndex, 0xa0)), 0x01),\n                    0x8000000000000000000000000000000000000000000000000000000000000000\n                    )\n                )\n                )\n                // compute the relative offset to index this note in our returndata\n                mstore(add(add(inputPtr, 0x40), mul(i, 0x20)), sub(s, inputPtr)) // relative offset to note\n        \n                // increase s by note length\n                s := add(s, 0xc0)\n            }\n\n            // transition between input and output notes\n            mstore(0x280, sub(sub(s, inputPtr), 0x20)) // store total length of inputNotes at first index of inputNotes \n            mstore(0x220, add(0xa0, sub(s, inputPtr))) // store relative memory offset to outputNotes\n            inputPtr := s\n            mstore(add(inputPtr, 0x20), sub(n, m)) // store number of output notes\n            s := add(s, add(0x40, mul(sub(n, m), 0x20)))\n\n            // output notes\n            for { let i := m } lt(i, n) { i := add(i, 0x01) } {\n                // get note index\n                let noteIndex := add(add(notes, 0x20), mul(i, 0xc0))\n                // get pointer to metadata\n                let metadataIndex := calldataload(add(metadata, mul(sub(i, m), 0x20)))\n                // get size of metadata\n                let metadataLength := calldataload(add(sub(metadata, 0x40), metadataIndex))\n\n                // copy note data to 0x00 - 0x80\n                calldatacopy(0x00, add(noteIndex, 0x40), 0x80) // get gamma, sigma\n\n                // store note length in `s`\n                mstore(s, add(0xa0, metadataLength))\n                // store the owner of the note in `s + 0x20`\n                mstore(add(s, 0x20), calldataload(add(outputOwners, mul(sub(i, m), 0x20))))\n                // store note hash\n                mstore(add(s, 0x40), keccak256(0x00, 0x80))\n                // store note metadata length if `s + 0x60`\n                mstore(add(s, 0x60), add(0x40, metadataLength))\n                // store compressed note coordinate gamma in `s + 0x80`\n                mstore(\n                    add(s, 0x80),\n                    or(\n                        mload(0x00),\n                        mul(\n                            and(mload(0x20), 0x01),\n                            0x8000000000000000000000000000000000000000000000000000000000000000\n                        )\n                    )\n                )\n                // store compressed note coordinate sigma in `s + 0xa0`\n                mstore(\n                add(s, 0xa0),\n                or(\n                    mload(0x40),\n                    mul(\n                        and(mload(0x60), 0x01),\n                        0x8000000000000000000000000000000000000000000000000000000000000000\n                    )\n                )\n                )\n                // copy metadata into `s + 0xc0`\n                calldatacopy(add(s, 0xc0), add(metadataIndex, sub(metadata, 0x20)), metadataLength)\n                // compute the relative offset to index this note in our returndata\n                mstore(add(add(inputPtr, 0x40), mul(sub(i, m), 0x20)), sub(s, inputPtr)) // relative offset to note\n\n                // increase s by note length\n                s := add(s, add(mload(s), 0x20))\n            }\n\n            // cleanup. the length of the outputNotes = s - inputPtr\n            mstore(inputPtr, sub(sub(s, inputPtr), 0x20)) // store length of outputNotes at start of outputNotes\n            let notesLength := sub(s, 0x280)\n            mstore(0x1e0, add(0x80, notesLength)) // store length of proofOutput at 0x160\n            mstore(0x180, add(0xe0, notesLength)) // store length of proofOutputs at 0x100\n            // mstore(0x00 , notesLength) return(0x00, 0x20)\n            mstore(0x160, 0x20)\n            return(0x160, add(0x120, notesLength)) // return the final byte array\n        }\n    }\n}\n\n\ncontract JoinSplitABIEncoderTest is LibEIP712 {\n\n    function validateJoinSplit(\n        bytes calldata, \n        address, \n        uint[6] calldata\n    ) \n        external \n        view \n        returns (bytes memory) \n    {\n        JoinSplitABIEncoder.encodeAndExit(EIP712_DOMAIN_HASH);\n    }\n}\n",
  "sourcePath": "/home/arsalen/Desktop/draft/AZTECProtocol/aztec-demo-js/protocol/contracts/ACE/validators/JoinSplit/JoinSplitABIEncoder.sol",
  "compiler": {
    "name": "solc",
    "version": "0.5.4+commit.9549d8ff.Emscripten.clang"
  },
  "schemaVersion": "3.0.2",
  "updatedAt": "2019-03-03T05:16:18.507Z",
  "devdoc": {
    "methods": {}
  },
  "userdoc": {
    "methods": {}
  }
}