{
  "contractName": "LibEIP712",
  "abi": [
    {
      "constant": true,
      "inputs": [],
      "name": "EIP712_DOMAIN_HASH",
      "outputs": [
        {
          "name": "",
          "type": "bytes32"
        }
      ],
      "payable": false,
      "stateMutability": "view",
      "type": "function"
    },
    {
      "inputs": [],
      "payable": false,
      "stateMutability": "nonpayable",
      "type": "constructor"
    }
  ],
  "bytecode": "0x608060405234801561001057600080fd5b50604080517f454950373132446f6d61696e28000000000000000000000000000000000000006020808301919091527f737472696e67206e616d652c0000000000000000000000000000000000000000602d8301527f737472696e672076657273696f6e2c000000000000000000000000000000000060398301527f6164647265737320766572696679696e67436f6e74726163740000000000000060488301527f29000000000000000000000000000000000000000000000000000000000000006061830152825160428184030181526062830180855281519183019190912060a28401855260199091527f415a5445435f43525950544f4752415048595f454e47494e450000000000000060829093019290925282518084018452600181527f3100000000000000000000000000000000000000000000000000000000000000908201528251808201929092527fc8066e2c715ce196630b273cd256d8959d5b9fefc55e9e6d999fb0f08bb7f75f828401527fc89efdaa54c0f20c7adf612882df0950f5a951637e0307cdcb4c672f298b8bc66060830152306080808401919091528351808403909101815260a090920190925280519101206000556093806101dc6000396000f3fe6080604052348015600f57600080fd5b50600436106044577c01000000000000000000000000000000000000000000000000000000006000350463e306f77981146049575b600080fd5b604f6061565b60408051918252519081900360200190f35b6000548156fea165627a7a72305820deff034bbbf2258585a74fae4e24392f449f042e455b14c5cde370c36e11213c0029",
  "source": "pragma solidity >=0.5.0 <0.6.0;\n\n/*\n  Copyright Spilsbury Holdings Ltd 2018.\n  \n  Licensed under the Apache License, Version 2.0 (the \"License\");\n  you may not use this file except in compliance with the License.\n  You may obtain a copy of the License at\n\n    http://www.apache.org/licenses/LICENSE-2.0\n\n  Unless required by applicable law or agreed to in writing, software\n  distributed under the License is distributed on an \"AS IS\" BASIS,\n  WITHOUT WARRANTIES OR CONDITIONS OF ANY KIND, either express or implied.\n  See the License for the specific language governing permissions and\n  limitations under the License.\n\n  Forked from https://github.com/0xProject/0x-monorepo\n*/\n\ncontract LibEIP712 {\n\n    // EIP191 header for EIP712 prefix\n    string constant internal EIP191_HEADER = \"\\x19\\x01\";\n\n    // EIP712 Domain Name value\n    string constant internal EIP712_DOMAIN_NAME = \"AZTEC_CRYPTOGRAPHY_ENGINE\";\n\n    // EIP712 Domain Version value\n    string constant internal EIP712_DOMAIN_VERSION = \"1\";\n\n    // Hash of the EIP712 Domain Separator Schema\n    bytes32 constant internal EIP712_DOMAIN_SEPARATOR_SCHEMA_HASH = keccak256(abi.encodePacked(\n        \"EIP712Domain(\",\n            \"string name,\",\n            \"string version,\",\n            \"address verifyingContract\",\n        \")\"\n    ));\n\n    // Hash of the EIP712 Domain Separator data\n    // solhint-disable-next-line var-name-mixedcase\n    bytes32 public EIP712_DOMAIN_HASH;\n\n    constructor ()\n        public\n    {\n        EIP712_DOMAIN_HASH = keccak256(abi.encodePacked(\n            EIP712_DOMAIN_SEPARATOR_SCHEMA_HASH,\n            keccak256(bytes(EIP712_DOMAIN_NAME)),\n            keccak256(bytes(EIP712_DOMAIN_VERSION)),\n            bytes32(uint256(address(this)))\n        ));\n    }\n\n    /// @dev Calculates EIP712 encoding for a hash struct in this EIP712 Domain.\n    /// @param _hashStruct The EIP712 hash struct.\n    /// @return EIP712 hash applied to this EIP712 Domain.\n    function hashEIP712Message(bytes32 _hashStruct)\n        internal\n        view\n        returns (bytes32 _result)\n    {\n        bytes32 eip712DomainHash = EIP712_DOMAIN_HASH;\n\n        // Assembly for more efficient computing:\n        // keccak256(abi.encodePacked(\n        //     EIP191_HEADER,\n        //     EIP712_DOMAIN_HASH,\n        //     hashStruct    \n        // ));\n\n        assembly {\n            // Load free memory pointer\n            let memPtr := mload(0x40)\n\n            mstore(memPtr, 0x1901000000000000000000000000000000000000000000000000000000000000)  // EIP191 header\n            mstore(add(memPtr, 0x02), eip712DomainHash)                                         // EIP712 domain hash\n            mstore(add(memPtr, 0x22), _hashStruct)                                              // Hash of struct\n\n            // Compute hash\n            _result := keccak256(memPtr, 0x42)\n        }\n        return _result;\n    }\n\n    /// @dev Extracts the address of the signer with ECDSA.\n    /// @param _message The EIP712 message.\n    /// @param _signature The ECDSA values, r, c and v.\n    /// @return The address of the message signer.\n    function recoverSignature(\n        bytes32 _message,\n        bytes memory _signature\n    ) internal view returns (address _signer) {\n        bool result;\n        assembly {\n            let r := mload(add(_signature, 0x20))\n            let s := mload(add(_signature, 0x40))\n            let v := byte(0, mload(add(_signature, 0x60)))\n            let memPtr := mload(0x40)\n            mstore(memPtr, _message)\n            mstore(add(memPtr, 0x20), v)\n            mstore(add(memPtr, 0x40), r)\n            mstore(add(memPtr, 0x60), s)\n            result := and(\n                and(\n                    eq(mload(_signature), 0x41),\n                    or(eq(v, 27), eq(v, 28))\n                ),\n                staticcall(gas, 0x01, memPtr, 0x80, memPtr, 0x20)\n            )\n            _signer := mload(memPtr)\n        }\n        require(result, \"signature recovery failed!\");\n        require(_signer != address(0), \"signer address cannot be 0\");\n    }\n}\n\n",
  "sourcePath": "/home/arsalen/Desktop/draft/AZTECProtocol/aztec-demo-js/protocol/contracts/libs/LibEIP712.sol",
  "compiler": {
    "name": "solc",
    "version": "0.5.4+commit.9549d8ff.Emscripten.clang"
  },
  "schemaVersion": "3.0.2",
  "updatedAt": "2019-03-03T05:16:18.515Z",
  "devdoc": {
    "methods": {}
  },
  "userdoc": {
    "methods": {}
  }
}