{
  "contractName": "Migrations",
  "abi": [
    {
      "constant": true,
      "inputs": [],
      "name": "owner",
      "outputs": [
        {
          "name": "",
          "type": "address"
        }
      ],
      "payable": false,
      "stateMutability": "view",
      "type": "function",
      "signature": "0x8da5cb5b"
    },
    {
      "constant": true,
      "inputs": [],
      "name": "lastCompletedMigration",
      "outputs": [
        {
          "name": "",
          "type": "uint256"
        }
      ],
      "payable": false,
      "stateMutability": "view",
      "type": "function",
      "signature": "0xfbdbad3c"
    },
    {
      "inputs": [],
      "payable": false,
      "stateMutability": "nonpayable",
      "type": "constructor",
      "signature": "constructor"
    },
    {
      "constant": false,
      "inputs": [
        {
          "name": "completed",
          "type": "uint256"
        }
      ],
      "name": "setCompleted",
      "outputs": [],
      "payable": false,
      "stateMutability": "nonpayable",
      "type": "function",
      "signature": "0xfdacd576"
    },
    {
      "constant": false,
      "inputs": [
        {
          "name": "newAddress",
          "type": "address"
        }
      ],
      "name": "upgrade",
      "outputs": [],
      "payable": false,
      "stateMutability": "nonpayable",
      "type": "function",
      "signature": "0x0900f010"
    }
  ],
  "bytecode": "0x608060405234801561001057600080fd5b5060008054600160a060020a03191633179055610230806100326000396000f3fe608060405234801561001057600080fd5b5060043610610068577c010000000000000000000000000000000000000000000000000000000060003504630900f010811461006d5780638da5cb5b146100a2578063fbdbad3c146100d3578063fdacd576146100ed575b600080fd5b6100a06004803603602081101561008357600080fd5b503573ffffffffffffffffffffffffffffffffffffffff1661010a565b005b6100aa6101bd565b6040805173ffffffffffffffffffffffffffffffffffffffff9092168252519081900360200190f35b6100db6101d9565b60408051918252519081900360200190f35b6100a06004803603602081101561010357600080fd5b50356101df565b60005473ffffffffffffffffffffffffffffffffffffffff163314156101ba5760008190508073ffffffffffffffffffffffffffffffffffffffff1663fdacd5766001546040518263ffffffff167c010000000000000000000000000000000000000000000000000000000002815260040180828152602001915050600060405180830381600087803b1580156101a057600080fd5b505af11580156101b4573d6000803e3d6000fd5b50505050505b50565b60005473ffffffffffffffffffffffffffffffffffffffff1681565b60015481565b60005473ffffffffffffffffffffffffffffffffffffffff163314156101ba5760015556fea165627a7a723058200a6da79d4f93ff52ea68a3db7a8a55bafe232792257f8bb6f715c22d650313d20029",
  "source": "pragma solidity ^0.5.0;\n\ncontract Migrations {\n    address public owner;\n    uint public lastCompletedMigration;\n\n    constructor() public {\n        owner = msg.sender;\n    }\n\n    modifier restricted() {\n        if (msg.sender == owner) _;\n    }\n\n    function setCompleted(uint completed) public restricted {\n        lastCompletedMigration = completed;\n    }\n\n    function upgrade(address newAddress) public restricted {\n        Migrations upgraded = Migrations(newAddress);\n        upgraded.setCompleted(lastCompletedMigration);\n    }\n}\n",
  "sourcePath": "/home/arsalen/Desktop/draft/AZTECProtocol/aztec-demo-js/protocol/contracts/Migrations.sol",
  "compiler": {
    "name": "solc",
    "version": "0.5.4+commit.9549d8ff.Emscripten.clang"
  },
  "schemaVersion": "3.0.2",
  "updatedAt": "2019-03-03T05:16:21.322Z",
  "devdoc": {
    "methods": {}
  },
  "userdoc": {
    "methods": {}
  }
}