{
  "contractName": "NoteRegistry",
  "abi": [
    {
      "constant": true,
      "inputs": [],
      "name": "totalSupply",
      "outputs": [
        {
          "name": "",
          "type": "uint256"
        }
      ],
      "payable": false,
      "stateMutability": "view",
      "type": "function"
    },
    {
      "constant": true,
      "inputs": [],
      "name": "linkedTokenScalingFactor",
      "outputs": [
        {
          "name": "",
          "type": "uint256"
        }
      ],
      "payable": false,
      "stateMutability": "view",
      "type": "function"
    },
    {
      "constant": true,
      "inputs": [],
      "name": "confidentialTotalSupply",
      "outputs": [
        {
          "name": "",
          "type": "bytes32"
        }
      ],
      "payable": false,
      "stateMutability": "view",
      "type": "function"
    },
    {
      "constant": true,
      "inputs": [],
      "name": "flags",
      "outputs": [
        {
          "name": "canMint",
          "type": "bool"
        },
        {
          "name": "canBurn",
          "type": "bool"
        },
        {
          "name": "canConvert",
          "type": "bool"
        }
      ],
      "payable": false,
      "stateMutability": "view",
      "type": "function"
    },
    {
      "constant": true,
      "inputs": [
        {
          "name": "",
          "type": "bytes32"
        }
      ],
      "name": "registry",
      "outputs": [
        {
          "name": "status",
          "type": "uint8"
        },
        {
          "name": "createdOn",
          "type": "bytes5"
        },
        {
          "name": "destroyedOn",
          "type": "bytes5"
        },
        {
          "name": "owner",
          "type": "address"
        }
      ],
      "payable": false,
      "stateMutability": "view",
      "type": "function"
    },
    {
      "constant": true,
      "inputs": [],
      "name": "ace",
      "outputs": [
        {
          "name": "",
          "type": "address"
        }
      ],
      "payable": false,
      "stateMutability": "view",
      "type": "function"
    },
    {
      "constant": true,
      "inputs": [],
      "name": "registryOwner",
      "outputs": [
        {
          "name": "",
          "type": "address"
        }
      ],
      "payable": false,
      "stateMutability": "view",
      "type": "function"
    },
    {
      "constant": true,
      "inputs": [],
      "name": "linkedToken",
      "outputs": [
        {
          "name": "",
          "type": "address"
        }
      ],
      "payable": false,
      "stateMutability": "view",
      "type": "function"
    },
    {
      "inputs": [
        {
          "name": "_canMint",
          "type": "bool"
        },
        {
          "name": "_canBurn",
          "type": "bool"
        },
        {
          "name": "_canConvert",
          "type": "bool"
        },
        {
          "name": "_linkedTokenScalingFactor",
          "type": "uint256"
        },
        {
          "name": "_linkedToken",
          "type": "address"
        },
        {
          "name": "_ace",
          "type": "address"
        },
        {
          "name": "_owner",
          "type": "address"
        }
      ],
      "payable": false,
      "stateMutability": "nonpayable",
      "type": "constructor"
    },
    {
      "constant": false,
      "inputs": [
        {
          "name": "_proofOutput",
          "type": "bytes"
        },
        {
          "name": "_proofSender",
          "type": "address"
        }
      ],
      "name": "mint",
      "outputs": [
        {
          "name": "",
          "type": "bool"
        }
      ],
      "payable": false,
      "stateMutability": "nonpayable",
      "type": "function"
    },
    {
      "constant": false,
      "inputs": [
        {
          "name": "_proofOutput",
          "type": "bytes"
        },
        {
          "name": "_proofSender",
          "type": "address"
        }
      ],
      "name": "burn",
      "outputs": [
        {
          "name": "",
          "type": "bool"
        }
      ],
      "payable": false,
      "stateMutability": "nonpayable",
      "type": "function"
    },
    {
      "constant": false,
      "inputs": [
        {
          "name": "_proofOutput",
          "type": "bytes"
        },
        {
          "name": "_proofType",
          "type": "uint16"
        },
        {
          "name": "_proofSender",
          "type": "address"
        }
      ],
      "name": "updateNoteRegistry",
      "outputs": [
        {
          "name": "",
          "type": "bool"
        }
      ],
      "payable": false,
      "stateMutability": "nonpayable",
      "type": "function"
    },
    {
      "constant": false,
      "inputs": [
        {
          "name": "proofHash",
          "type": "bytes32"
        },
        {
          "name": "value",
          "type": "uint256"
        }
      ],
      "name": "publicApprove",
      "outputs": [
        {
          "name": "",
          "type": "bool"
        }
      ],
      "payable": false,
      "stateMutability": "nonpayable",
      "type": "function"
    }
  ],
  "bytecode": "0x608060405234801561001057600080fd5b5060405160e080611977833981018060405260e081101561003057600080fd5b508051602080830151604080850151606080870151608088015160a089015160c09099015185519384018652881515808552871515988501899052851515949096018490526002805460ff191690961761ff0019166101009098029790971762ff00001916620100009093029290921790935594959294909391929091600160a060020a038316156100d85760038054600160a060020a031916600160a060020a0385161790555b60059390935560068054600160a060020a03948516600160a060020a0319918216179091556004805492909416911617909155505050506118598061011e6000396000f3fe608060405234801561001057600080fd5b50600436106100d1576000357c010000000000000000000000000000000000000000000000000000000090048063a5c8fa841161008e578063a5c8fa841461025f578063a975f52414610283578063aadc11981461033b578063d6ae4ab51461035e578063dc5853c71461040f578063ea12489f14610417576100d1565b80630cae37f1146100d657806318160ddd1461019b57806344749a88146101b557806354095227146101bd57806364cc4aa5146101c55780637ef50298146101ef575b600080fd5b610187600480360360408110156100ec57600080fd5b81019060208101813564010000000081111561010757600080fd5b82018360208201111561011957600080fd5b8035906020019184600183028401116401000000008311171561013b57600080fd5b91908080601f01602080910402602001604051908101604052809392919081815260200183838082843760009201919091525092955050509035600160a060020a0316915061041f9050565b604080519115158252519081900360200190f35b6101a3610851565b60408051918252519081900360200190f35b6101a3610857565b6101a361085d565b6101cd610863565b6040805193151584529115156020840152151582820152519081900360600190f35b61020c6004803603602081101561020557600080fd5b503561087f565b6040805160ff90951685527affffffffffffffffffffffffffffffffffffffffffffffffffffff1993841660208601529190921683820152600160a060020a039091166060830152519081900360800190f35b6102676108ca565b60408051600160a060020a039092168252519081900360200190f35b6101876004803603606081101561029957600080fd5b8101906020810181356401000000008111156102b457600080fd5b8201836020820111156102c657600080fd5b803590602001918460018302840111640100000000831117156102e857600080fd5b91908080601f0160208091040260200160405190810160405280939291908181526020018383808284376000920191909152509295505050813561ffff1692505060200135600160a060020a03166108d9565b6101876004803603604081101561035157600080fd5b5080359060200135610dc9565b6101876004803603604081101561037457600080fd5b81019060208101813564010000000081111561038f57600080fd5b8201836020820111156103a157600080fd5b803590602001918460018302840111640100000000831117156103c357600080fd5b91908080601f01602080910402602001604051908101604052809392919081815260200183838082843760009201919091525092955050509035600160a060020a03169150610deb9050565b610267611250565b61026761125f565b600654600090600160a060020a0316331461046e5760405160e560020a62461bcd0281526004018080602001828103825260258152602001806116566025913960400191505060405180910390fd5b60025460ff1615156001146104cd576040805160e560020a62461bcd02815260206004820152601b60248201527f74686973206173736574206973206e6f74206d696e7461626c65210000000000604482015290519081900360640190fd5b60006104d88461126e565b60048054604080517ffa7ff56c00000000000000000000000000000000000000000000000000000000815260019381019390935260248301849052600160a060020a0387811660448501529051939450169163fa7ff56c91606480820192602092909190829003018186803b15801561055057600080fd5b505afa158015610564573d6000803e3d6000fd5b505050506040513d602081101561057a57600080fd5b505115156001146105bf5760405160e560020a62461bcd0281526004018080602001828103825260278152602001806117146027913960400191505060405180910390fd5b60608060006105cd87611278565b935050925092508060001415156106185760405160e560020a62461bcd02815260040180806020018281038252602d8152602001806115f8602d913960400191505060405180910390fd5b600061062383611299565b116106625760405160e560020a62461bcd0281526004018080602001828103825260328152602001806117fc6032913960400191505060405180910390fd5b61066b83611299565b6001146106ac5760405160e560020a62461bcd02815260040180806020018281038252602e8152602001806117ce602e913960400191505060405180910390fd5b60006106c66106c1848363ffffffff6112a016565b6112ad565b509150506001548114151561070f5760405160e560020a62461bcd02815260040180806020018281038252602a81526020018061173b602a913960400191505060405180910390fd5b6107236106c185600063ffffffff6112a016565b50600181815590925090505b61073884611299565b8110156108455760006107546106c1868463ffffffff6112a016565b506000818152600760205260409020805491955091925060ff16156107c3576040805160e560020a62461bcd02815260206004820152601360248201527f6f7574707574206e6f7465206578697374732100000000000000000000000000604482015290519081900360640190fd5b805460ff191660011781556107df42600563ffffffff6112c116565b8154600160a060020a039093166b010000000000000000000000027fff0000000000000000000000000000000000000000ffffffffffffffffffffff60d860020a9092046101000265ffffffffff0019909416939093171691909117905560010161072f565b50505050505092915050565b60005481565b60055481565b60015481565b60025460ff808216916101008104821691620100009091041683565b60076020526000908152604090205460ff81169060d860020a61010082048102916601000000000000810490910290600160a060020a036b0100000000000000000000009091041684565b600454600160a060020a031681565b600654600090600160a060020a031633146109285760405160e560020a62461bcd0281526004018080602001828103825260258152602001806116566025913960400191505060405180910390fd5b60006109338561126e565b60048054604080517ffa7ff56c00000000000000000000000000000000000000000000000000000000815261ffff89169381019390935260248301849052600160a060020a0387811660448501529051939450169163fa7ff56c91606480820192602092909190829003018186803b1580156109ae57600080fd5b505afa1580156109c2573d6000803e3d6000fd5b505050506040513d60208110156109d857600080fd5b50511515600114610a1d5760405160e560020a62461bcd0281526004018080602001828103825260278152602001806117146027913960400191505060405180910390fd5b606080600080610a2c89611278565b9350935093509350610a3d8461137c565b610a46836114da565b8015610dba5760025460ff1615610a915760405160e560020a62461bcd0281526004018080602001828103825260378152602001806117976037913960400191505060405180910390fd5b600254610100900460ff1615610adb5760405160e560020a62461bcd02815260040180806020018281038252603781526020018061167b6037913960400191505060405180910390fd5b60025462010000900460ff161515600114610b2a5760405160e560020a62461bcd0281526004018080602001828103825260328152602001806117656032913960400191505060405180910390fd5b6000811215610cbe57600080548282039081018255600160a060020a0384168252600860209081526040808420898552909152909120541015610ba15760405160e560020a62461bcd0281526004018080602001828103825260338152602001806116e16033913960400191505060405180910390fd5b600160a060020a0380831660008181526008602090815260408083208a8452825280832080548785039081900390915560035482517f23b872dd0000000000000000000000000000000000000000000000000000000081526004810196909652306024870152604486019190915290519416936323b872dd93606480820194918390030190829087803b158015610c3757600080fd5b505af1158015610c4b573d6000803e3d6000fd5b505050506040513d6020811015610c6157600080fd5b50511515610cb9576040805160e560020a62461bcd02815260206004820152601060248201527f7472616e73666572206661696c65642100000000000000000000000000000000604482015290519081900360640190fd5b610dba565b600080548290038155600354604080517fa9059cbb000000000000000000000000000000000000000000000000000000008152600160a060020a038681166004830152602482018690529151919092169263a9059cbb92604480820193602093909283900390910190829087803b158015610d3857600080fd5b505af1158015610d4c573d6000803e3d6000fd5b505050506040513d6020811015610d6257600080fd5b50511515610dba576040805160e560020a62461bcd02815260206004820152601060248201527f7472616e73666572206661696c65642100000000000000000000000000000000604482015290519081900360640190fd5b50600198975050505050505050565b3360009081526008602090815260408083209483529390529190912055600190565b600654600090600160a060020a03163314610e3a5760405160e560020a62461bcd0281526004018080602001828103825260258152602001806116566025913960400191505060405180910390fd5b60025460ff610100909104161515600114610e9f576040805160e560020a62461bcd02815260206004820152601b60248201527f74686973206173736574206973206e6f74206275726e61626c65210000000000604482015290519081900360640190fd5b6000610eaa8461126e565b60048054604080517ffa7ff56c00000000000000000000000000000000000000000000000000000000815260019381019390935260248301849052600160a060020a0387811660448501529051939450169163fa7ff56c91606480820192602092909190829003018186803b158015610f2257600080fd5b505afa158015610f36573d6000803e3d6000fd5b505050506040513d6020811015610f4c57600080fd5b50511515600114610f915760405160e560020a62461bcd0281526004018080602001828103825260278152602001806117146027913960400191505060405180910390fd5b6060806000610f9f87611278565b93505092509250806000141515610fea5760405160e560020a62461bcd02815260040180806020018281038252602d8152602001806115f8602d913960400191505060405180910390fd5b6000610ff584611299565b116110345760405160e560020a62461bcd0281526004018080602001828103825260318152602001806116256031913960400191505060405180910390fd5b61103d82611299565b60011461107e5760405160e560020a62461bcd02815260040180806020018281038252602f8152602001806116b2602f913960400191505060405180910390fd5b60006110936106c1858363ffffffff6112a016565b50915050600154811415156110dc5760405160e560020a62461bcd02815260040180806020018281038252602a81526020018061173b602a913960400191505060405180910390fd5b6110f06106c184600063ffffffff6112a016565b50600181815590925090505b61110585611299565b8110156108455760006111216106c1868463ffffffff6112a016565b506000818152600760205260409020805491955091925060ff16600114611192576040805160e560020a62461bcd02815260206004820152601a60248201527f696e707574206e6f746520646f6573206e6f7420657869737421000000000000604482015290519081900360640190fd5b8054600160a060020a038381166b0100000000000000000000009092041614611205576040805160e560020a62461bcd02815260206004820181905260248201527f696e707574206e6f7465206f776e657220646f6573206e6f74206d6174636821604482015290519081900360640190fd5b805460ff1916600217815561122142600563ffffffff6112c116565b815460d860020a9091046601000000000000026affffffffff00000000000019909116179055506001016110fc565b600654600160a060020a031681565b600354600160a060020a031681565b8051602001902090565b60208101516040820151606083015160808401519284019491909301929190565b6020015190565b6020028101604001510190565b602081015160408201519092909160600190565b6040805160058082528183019092526000916060919060208201818038833901905050905060005b838110156113705780600185030360080260020a8581151561130757fe5b047f010000000000000000000000000000000000000000000000000000000000000002828281518110151561133857fe5b9060200101907effffffffffffffffffffffffffffffffffffffffffffffffffffffffffffff1916908160001a9053506001016112e9565b50602001519392505050565b60005b61138882611299565b8110156114d6576000806113a56106c1858563ffffffff6112a016565b50600081815260076020526040902080549294509092509060ff16600114611417576040805160e560020a62461bcd02815260206004820152601a60248201527f696e707574206e6f746520646f6573206e6f7420657869737421000000000000604482015290519081900360640190fd5b8054600160a060020a038481166b010000000000000000000000909204161461148a576040805160e560020a62461bcd02815260206004820181905260248201527f696e707574206e6f7465206f776e657220646f6573206e6f74206d6174636821604482015290519081900360640190fd5b805460ff191660021781556114a642600563ffffffff6112c116565b815460d860020a9091046601000000000000026affffffffff00000000000019909116179055505060010161137f565b5050565b60005b6114e682611299565b8110156114d6576000806115036106c1858563ffffffff6112a016565b50600081815260076020526040902080549294509092509060ff1615611573576040805160e560020a62461bcd02815260206004820152601360248201527f6f7574707574206e6f7465206578697374732100000000000000000000000000604482015290519081900360640190fd5b805460ff1916600117815561158f42600563ffffffff6112c116565b8154600160a060020a039094166b010000000000000000000000027fff0000000000000000000000000000000000000000ffffffffffffffffffffff60d860020a9092046101000265ffffffffff0019909516949094171692909217909155506001016114dd56fe6d696e74207472616e73616374696f6e732063616e6e6f7420686176652061207075626c69632076616c7565216275726e207472616e73616374696f6e732072657175697265206174206c65617374206f6e6520696e707574206e6f74656d6573736167652073656e646572206973206e6f74207265676973747279206f776e6572216275726e61626c65206173736574732063616e6e6f7420626520636f6e76657274656420696e746f207075626c696320746f6b656e73216275726e207472616e73616374696f6e732063616e206f6e6c792068617665206f6e65206f7574707574206e6f74657075626c6963206f776e657220686173206e6f742076616c6964617465642061207472616e73666572206f6620746f6b656e7341434520686173206e6f742076616c6964617465642061206d61746368696e672070726f6f662170726f766964656420746f74616c20737570706c79206e6f746520646f6573206e6f74206d6174636821746869732061737365742063616e6e6f7420626520636f6e76657274656420696e746f207075626c696320746f6b656e73216d696e7461626c65206173736574732063616e6e6f7420626520636f6e76657274656420696e746f207075626c696320746f6b656e73216d696e74207472616e73616374696f6e732063616e206f6e6c792068617665206f6e6520696e707574206e6f74656d696e74207472616e73616374696f6e732072657175697265206174206c65617374206f6e65206f7574707574206e6f7465a165627a7a723058206a79b3eabc529536a5751a3180c197ddf174fc3db0b84a0c6aa5acf6b446789b0029",
  "source": "pragma solidity >=0.5.0 <0.6.0;\n\nimport \"openzeppelin-solidity/contracts/token/ERC20/ERC20.sol\";\n\nimport \"./ACE.sol\";\nimport \"../utils/IntegerUtils.sol\";\nimport \"../utils/NoteUtils.sol\";\n\ncontract NoteRegistry {\n    using IntegerUtils for uint;\n    using NoteUtils for bytes;\n\n    struct Note {\n        uint8 status;\n        bytes5 createdOn;\n        bytes5 destroyedOn;\n        address owner;\n    }\n\n    uint256 public totalSupply;\n    bytes32 public confidentialTotalSupply;\n\n    struct Flags {\n        bool canMint;\n        bool canBurn;\n        bool canConvert;\n    }\n\n    Flags public flags;\n    ERC20 public linkedToken;\n    ACE public ace;\n\n    uint256 public linkedTokenScalingFactor;\n    address public registryOwner;\n    mapping(bytes32 => Note) public registry;\n    mapping(address => mapping(bytes32 => uint256)) publicApprovals;\n\n    constructor(\n        bool _canMint,\n        bool _canBurn,\n        bool _canConvert,\n        uint256 _linkedTokenScalingFactor,\n        address _linkedToken,\n        address _ace,\n        address _owner\n    ) public {\n        flags = Flags(_canMint, _canBurn, _canConvert);\n        if (_linkedToken != address(0)) {\n            linkedToken = ERC20(_linkedToken);\n        }\n        linkedTokenScalingFactor = _linkedTokenScalingFactor;\n        registryOwner = _owner;\n        ace = ACE(_ace);\n    }\n\n    function mint(bytes memory _proofOutput, address _proofSender) public returns (bool) {\n        require(msg.sender == registryOwner, \"message sender is not registry owner!\");\n        require(flags.canMint == true, \"this asset is not mintable!\");\n        bytes32 proofHash = _proofOutput.hashProofOutput();\n        require(\n            ace.validateProofByHash(1, proofHash, _proofSender) == true,\n            \"ACE has not validated a matching proof!\"\n        );\n        (\n            bytes memory inputNotes,\n            bytes memory outputNotes,\n            ,\n            int256 publicValue\n        ) = _proofOutput.extractProofOutput();\n        require(publicValue == 0, \"mint transactions cannot have a public value!\");\n\n        require(outputNotes.getLength() > 0, \"mint transactions require at least one output note\");\n        require(inputNotes.getLength() == 1, \"mint transactions can only have one input note\");\n        (\n            ,\n            bytes32 noteHash,\n        ) = outputNotes.get(0).extractNote();\n        require(noteHash == confidentialTotalSupply, \"provided total supply note does not match!\");\n        (\n            ,\n            noteHash,\n        ) = inputNotes.get(0).extractNote();\n\n        confidentialTotalSupply = noteHash;\n\n        for (uint i = 1; i < outputNotes.getLength(); i += 1) {\n            address owner;\n            (owner, noteHash, ) = outputNotes.get(i).extractNote();\n            Note storage note = registry[noteHash];\n            require(note.status == 0, \"output note exists!\");\n            note.status = uint8(1);\n            // AZTEC uses timestamps to measure the age of a note on timescales of days/months\n            // The 900-ish seconds a miner can manipulate a timestamp should have little effect\n            // solhint-disable-next-line not-rely-on-time\n            note.createdOn = now.uintToBytes(5);\n            note.owner = owner;\n        }\n    }\n\n    function burn(bytes memory _proofOutput, address _proofSender) public returns (bool) {\n        require(msg.sender == registryOwner, \"message sender is not registry owner!\");\n        require(flags.canBurn == true, \"this asset is not burnable!\");\n        bytes32 proofHash = _proofOutput.hashProofOutput();\n        require(\n            ace.validateProofByHash(1, proofHash, _proofSender) == true,\n            \"ACE has not validated a matching proof!\"\n        );\n        (\n            bytes memory inputNotes,\n            bytes memory outputNotes,\n            ,\n            int256 publicValue\n        ) = _proofOutput.extractProofOutput();\n        require(publicValue == 0, \"mint transactions cannot have a public value!\");\n\n        require(inputNotes.getLength() > 0, \"burn transactions require at least one input note\");\n        require(outputNotes.getLength() == 1, \"burn transactions can only have one output note\");\n        (\n            ,\n            bytes32 noteHash,\n        ) = inputNotes.get(0).extractNote();\n        require(noteHash == confidentialTotalSupply, \"provided total supply note does not match!\");\n        (\n            ,\n            noteHash,\n        ) = outputNotes.get(0).extractNote();\n\n        confidentialTotalSupply = noteHash;\n\n        for (uint i = 1; i < inputNotes.getLength(); i += 1) {\n            address owner;\n            (owner, noteHash, ) = outputNotes.get(i).extractNote();\n            Note storage note = registry[noteHash];\n            require(note.status == 1, \"input note does not exist!\");\n            require(note.owner == owner, \"input note owner does not match!\");\n            note.status = uint8(2);\n            // AZTEC uses timestamps to measure the age of a note, on timescales of days/months\n            // The 900-ish seconds a miner can manipulate a timestamp should have little effect\n            // solhint-disable-next-line not-rely-on-time\n            note.destroyedOn = now.uintToBytes(5);\n        }\n    }\n\n    function updateNoteRegistry(\n        bytes memory _proofOutput, \n        uint16 _proofType, \n        address _proofSender\n    ) public returns (bool) {\n        require(msg.sender == registryOwner, \"message sender is not registry owner!\");\n        bytes32 proofHash = _proofOutput.hashProofOutput();\n        require(\n            ace.validateProofByHash(_proofType, proofHash, _proofSender) == true,\n            \"ACE has not validated a matching proof!\"\n        );\n\n        (bytes memory inputNotes,\n        bytes memory outputNotes,\n        address publicOwner,\n        int256 publicValue) = _proofOutput.extractProofOutput();\n\n        updateInputNotes(inputNotes);\n        updateOutputNotes(outputNotes);\n\n\n        if (publicValue != 0) {\n            require(flags.canMint == false, \"mintable assets cannot be converted into public tokens!\");\n            require(flags.canBurn == false, \"burnable assets cannot be converted into public tokens!\");\n            require(flags.canConvert == true, \"this asset cannot be converted into public tokens!\");\n            if (publicValue < 0) {\n                totalSupply += uint256(-publicValue);\n                require(\n                    publicApprovals[publicOwner][proofHash] >= uint256(-publicValue),\n                    \"public owner has not validated a transfer of tokens\"\n                );\n                publicApprovals[publicOwner][proofHash] -= uint256(-publicValue);\n                require(\n                    linkedToken.transferFrom(publicOwner, address(this), uint256(-publicValue)), \"transfer failed!\"\n                );\n            } else {\n                totalSupply -= uint256(publicValue);\n                require(linkedToken.transfer(publicOwner, uint256(publicValue)), \"transfer failed!\");\n            }\n        }\n\n        return true;\n    }\n\n    function publicApprove(bytes32 proofHash, uint256 value) public returns (bool) {\n        publicApprovals[msg.sender][proofHash] = value;\n        return true;\n    }\n\n    function updateInputNotes(bytes memory inputNotes) internal {\n        for (uint i = 0; i < inputNotes.getLength(); i += 1) {\n            (address owner, bytes32 noteHash,) = inputNotes.get(i).extractNote();\n            // `note` will be stored on the blockchain\n            Note storage note = registry[noteHash];\n            require(note.status == 1, \"input note does not exist!\");\n            require(note.owner == owner, \"input note owner does not match!\");\n            note.status = uint8(2);\n            // AZTEC uses timestamps to measure the age of a note, on timescales of days/months\n            // The 900-ish seconds a miner can manipulate a timestamp should have little effect\n            // solhint-disable-next-line not-rely-on-time\n            note.destroyedOn = now.uintToBytes(5);\n        }\n    }\n\n    function updateOutputNotes(bytes memory outputNotes) internal {\n        for (uint i = 0; i < outputNotes.getLength(); i += 1) {\n            (address owner, bytes32 noteHash,) = outputNotes.get(i).extractNote();\n            // `note` will be stored on the blockchain\n            Note storage note = registry[noteHash];\n            require(note.status == 0, \"output note exists!\");\n            note.status = uint8(1);\n            // AZTEC uses timestamps to measure the age of a note on timescales of days/months\n            // The 900-ish seconds a miner can manipulate a timestamp should have little effect\n            // solhint-disable-next-line not-rely-on-time\n            note.createdOn = now.uintToBytes(5);\n            note.owner = owner;\n        }\n    }\n}\n",
  "sourcePath": "/home/arsalen/Desktop/draft/AZTECProtocol/aztec-demo-js/protocol/contracts/ACE/NoteRegistry.sol",
  "compiler": {
    "name": "solc",
    "version": "0.5.4+commit.9549d8ff.Emscripten.clang"
  },
  "schemaVersion": "3.0.2",
  "updatedAt": "2019-03-03T05:16:18.499Z",
  "devdoc": {
    "methods": {}
  },
  "userdoc": {
    "methods": {}
  }
}