{
  "contractName": "ZKERC20",
  "abi": [
    {
      "constant": true,
      "inputs": [],
      "name": "name",
      "outputs": [
        {
          "name": "",
          "type": "string"
        }
      ],
      "payable": false,
      "stateMutability": "view",
      "type": "function",
      "signature": "0x06fdde03"
    },
    {
      "constant": true,
      "inputs": [
        {
          "name": "",
          "type": "bytes32"
        },
        {
          "name": "",
          "type": "address"
        }
      ],
      "name": "confidentialApproved",
      "outputs": [
        {
          "name": "",
          "type": "bool"
        }
      ],
      "payable": false,
      "stateMutability": "view",
      "type": "function",
      "signature": "0x0f4a80fe"
    },
    {
      "constant": true,
      "inputs": [],
      "name": "flags",
      "outputs": [
        {
          "name": "canMint",
          "type": "bool"
        },
        {
          "name": "canBurn",
          "type": "bool"
        },
        {
          "name": "canConvert",
          "type": "bool"
        }
      ],
      "payable": false,
      "stateMutability": "view",
      "type": "function",
      "signature": "0x64cc4aa5"
    },
    {
      "constant": true,
      "inputs": [],
      "name": "noteRegistry",
      "outputs": [
        {
          "name": "",
          "type": "address"
        }
      ],
      "payable": false,
      "stateMutability": "view",
      "type": "function",
      "signature": "0x7cf7af0f"
    },
    {
      "constant": true,
      "inputs": [],
      "name": "ace",
      "outputs": [
        {
          "name": "",
          "type": "address"
        }
      ],
      "payable": false,
      "stateMutability": "view",
      "type": "function",
      "signature": "0xa5c8fa84"
    },
    {
      "constant": true,
      "inputs": [],
      "name": "EIP712_DOMAIN_HASH",
      "outputs": [
        {
          "name": "",
          "type": "bytes32"
        }
      ],
      "payable": false,
      "stateMutability": "view",
      "type": "function",
      "signature": "0xe306f779"
    },
    {
      "constant": true,
      "inputs": [],
      "name": "linkedToken",
      "outputs": [
        {
          "name": "",
          "type": "address"
        }
      ],
      "payable": false,
      "stateMutability": "view",
      "type": "function",
      "signature": "0xea12489f"
    },
    {
      "constant": true,
      "inputs": [],
      "name": "scalingFactor",
      "outputs": [
        {
          "name": "",
          "type": "uint256"
        }
      ],
      "payable": false,
      "stateMutability": "view",
      "type": "function",
      "signature": "0xed3437f8"
    },
    {
      "inputs": [
        {
          "name": "_name",
          "type": "string"
        },
        {
          "name": "_canMint",
          "type": "bool"
        },
        {
          "name": "_canBurn",
          "type": "bool"
        },
        {
          "name": "_canConvert",
          "type": "bool"
        },
        {
          "name": "_scalingFactor",
          "type": "uint256"
        },
        {
          "name": "_linkedTokenAddress",
          "type": "address"
        },
        {
          "name": "_aceAddress",
          "type": "address"
        }
      ],
      "payable": false,
      "stateMutability": "nonpayable",
      "type": "constructor",
      "signature": "constructor"
    },
    {
      "anonymous": false,
      "inputs": [
        {
          "indexed": false,
          "name": "noteRegistry",
          "type": "address"
        }
      ],
      "name": "LogCreateNoteRegistry",
      "type": "event",
      "signature": "0x81ccf39ea4c9b29f6e77a2ebfcf463b98a98d66f96cb8836ecee08ce23ed9a2a"
    },
    {
      "anonymous": false,
      "inputs": [
        {
          "indexed": false,
          "name": "canMint",
          "type": "bool"
        },
        {
          "indexed": false,
          "name": "canBurn",
          "type": "bool"
        },
        {
          "indexed": false,
          "name": "canConvert",
          "type": "bool"
        },
        {
          "indexed": false,
          "name": "scalingFactor",
          "type": "uint256"
        },
        {
          "indexed": false,
          "name": "linkedToken",
          "type": "address"
        },
        {
          "indexed": false,
          "name": "ace",
          "type": "address"
        }
      ],
      "name": "LogCreateZKERC20",
      "type": "event",
      "signature": "0xfc81c6ab3c8d927dd83795e34ba35714c15a6d82b7481a995aedd74d7c713d48"
    },
    {
      "anonymous": false,
      "inputs": [
        {
          "indexed": true,
          "name": "_noteHash",
          "type": "bytes32"
        },
        {
          "indexed": true,
          "name": "_owner",
          "type": "address"
        },
        {
          "indexed": false,
          "name": "_metadata",
          "type": "bytes"
        }
      ],
      "name": "LogCreateNote",
      "type": "event",
      "signature": "0x0a12a3d1e6a8e2e5949ed11fc753806ae5bc58941221f65fa5184704c23da07e"
    },
    {
      "anonymous": false,
      "inputs": [
        {
          "indexed": true,
          "name": "_noteHash",
          "type": "bytes32"
        },
        {
          "indexed": true,
          "name": "_owner",
          "type": "address"
        },
        {
          "indexed": false,
          "name": "_metadata",
          "type": "bytes"
        }
      ],
      "name": "LogDestroyNote",
      "type": "event",
      "signature": "0xaf5b4f95b97f88e83227a8fbec89579c367b26c18a4d1e5628d5fb2def351d89"
    },
    {
      "anonymous": false,
      "inputs": [
        {
          "indexed": true,
          "name": "_owner",
          "type": "address"
        },
        {
          "indexed": false,
          "name": "_value",
          "type": "uint256"
        }
      ],
      "name": "LogConvertTokens",
      "type": "event",
      "signature": "0xb5a180391883519ed3f7752a4b3adcd5ba0048972babf977dced29d338ad275a"
    },
    {
      "anonymous": false,
      "inputs": [
        {
          "indexed": true,
          "name": "_owner",
          "type": "address"
        },
        {
          "indexed": false,
          "name": "_value",
          "type": "uint256"
        }
      ],
      "name": "LogRedeemTokens",
      "type": "event",
      "signature": "0xf76fdfc7a4a006b652d723f0f84355b4a8113cbf80af27a61b0f8456d3c2eef1"
    },
    {
      "constant": false,
      "inputs": [
        {
          "name": "_proofData",
          "type": "bytes"
        }
      ],
      "name": "confidentialTransfer",
      "outputs": [
        {
          "name": "",
          "type": "bool"
        }
      ],
      "payable": false,
      "stateMutability": "nonpayable",
      "type": "function",
      "signature": "0x7400eabb"
    },
    {
      "constant": false,
      "inputs": [
        {
          "name": "_proofId",
          "type": "uint16"
        },
        {
          "name": "_proofOutput",
          "type": "bytes"
        }
      ],
      "name": "confidentialTransferFrom",
      "outputs": [
        {
          "name": "",
          "type": "bool"
        }
      ],
      "payable": false,
      "stateMutability": "nonpayable",
      "type": "function",
      "signature": "0xfe683a0b"
    },
    {
      "constant": false,
      "inputs": [
        {
          "name": "_noteHash",
          "type": "bytes32"
        },
        {
          "name": "_spender",
          "type": "address"
        },
        {
          "name": "_status",
          "type": "bool"
        },
        {
          "name": "_signature",
          "type": "bytes"
        }
      ],
      "name": "confidentialApprove",
      "outputs": [
        {
          "name": "",
          "type": "bool"
        }
      ],
      "payable": false,
      "stateMutability": "nonpayable",
      "type": "function",
      "signature": "0x1f2ac16a"
    }
  ],
  "bytecode": "0x60806040523480156200001157600080fd5b506040516200170b3803806200170b833981018060405260e08110156200003757600080fd5b8101908080516401000000008111156200005057600080fd5b820160208101848111156200006457600080fd5b81516401000000008111828201871017156200007f57600080fd5b505060208083015160408085015160608087015160808089015160a0808b015160c0909b015187517f454950373132446f6d61696e2800000000000000000000000000000000000000818c01527f737472696e67206e616d652c0000000000000000000000000000000000000000602d8201527f737472696e672076657273696f6e2c000000000000000000000000000000000060398201527f6164647265737320766572696679696e67436f6e74726163740000000000000060488201527f290000000000000000000000000000000000000000000000000000000000000060618201528851604281830301815260628201808b528151918d019190912060a283018b5260199091527f415a5445435f43525950544f4752415048595f454e47494e45000000000000006082909201919091528851808a018a52600181527f3100000000000000000000000000000000000000000000000000000000000000908c01528851808c01919091527fc8066e2c715ce196630b273cd256d8959d5b9fefc55e9e6d999fb0f08bb7f75f818a01527fc89efdaa54c0f20c7adf612882df0950f5a951637e0307cdcb4c672f298b8bc6968101969096523086850152875180870390940184529401909552805190870120600055865196995093975090959294919390916200027891600591908a019062000460565b506040805160608101825287151580825287151560208084018290528815159385018490526004805460ff1916841761ff00191661010084021762ff00001916620100008602178155600689905560018054600160a060020a0319908116600160a060020a038a81169190911792839055600280549092168b821690811790925588517fe557c7a700000000000000000000000000000000000000000000000000000000815293840196909652602483019490945260448201959095526064810189905260848101929092529351929091169263e557c7a79260a4808401938290030181600087803b1580156200036e57600080fd5b505af115801562000383573d6000803e3d6000fd5b505050506040513d60208110156200039a57600080fd5b505160038054600160a060020a031916600160a060020a0392831617908190556040805191909216815290517f81ccf39ea4c9b29f6e77a2ebfcf463b98a98d66f96cb8836ecee08ce23ed9a2a916020908290030190a160408051871515815286151560208201528515158183015260608101859052600160a060020a038085166080830152831660a082015290517ffc81c6ab3c8d927dd83795e34ba35714c15a6d82b7481a995aedd74d7c713d489181900360c00190a15050505050505062000505565b828054600181600116156101000203166002900490600052602060002090601f016020900481019282601f10620004a357805160ff1916838001178555620004d3565b82800160010185558215620004d3579182015b82811115620004d3578251825591602001919060010190620004b6565b50620004e1929150620004e5565b5090565b6200050291905b80821115620004e15760008155600101620004ec565b90565b6111f680620005156000396000f3fe608060405234801561001057600080fd5b50600436106100c6576000357c0100000000000000000000000000000000000000000000000000000000900480637cf7af0f1161008e5780637cf7af0f146102e6578063a5c8fa841461030a578063e306f77914610312578063ea12489f1461032c578063ed3437f814610334578063fe683a0b1461033c576100c6565b806306fdde03146100cb5780630f4a80fe146101485780631f2ac16a1461018857806364cc4aa51461024c5780637400eabb14610276575b600080fd5b6100d36103b7565b6040805160208082528351818301528351919283929083019185019080838360005b8381101561010d5781810151838201526020016100f5565b50505050905090810190601f16801561013a5780820380516001836020036101000a031916815260200191505b509250505060405180910390f35b6101746004803603604081101561015e57600080fd5b5080359060200135600160a060020a0316610445565b604080519115158252519081900360200190f35b6101746004803603608081101561019e57600080fd5b813591600160a060020a03602082013516916040820135151591908101906080810160608201356401000000008111156101d757600080fd5b8201836020820111156101e957600080fd5b8035906020019184600183028401116401000000008311171561020b57600080fd5b91908080601f016020809104026020016040519081016040528093929190818152602001838380828437600092019190915250929550610465945050505050565b61025461070a565b6040805193151584529115156020840152151582820152519081900360600190f35b6101746004803603602081101561028c57600080fd5b8101906020810181356401000000008111156102a757600080fd5b8201836020820111156102b957600080fd5b803590602001918460018302840111640100000000831117156102db57600080fd5b509092509050610726565b6102ee610aee565b60408051600160a060020a039092168252519081900360200190f35b6102ee610afd565b61031a610b0c565b60408051918252519081900360200190f35b6102ee610b12565b61031a610b21565b6101746004803603604081101561035257600080fd5b61ffff823516919081019060408101602082013564010000000081111561037857600080fd5b82018360208201111561038a57600080fd5b803590602001918460018302840111640100000000831117156103ac57600080fd5b509092509050610b27565b6005805460408051602060026001851615610100026000190190941693909304601f8101849004840282018401909252818152929183018282801561043d5780601f106104125761010080835404028352916020019161043d565b820191906000526020600020905b81548152906001019060200180831161042057829003601f168201915b505050505081565b600760209081526000928352604080842090915290825290205460ff1681565b600354604080517f7ef5029800000000000000000000000000000000000000000000000000000000815260048101879052905160009283928392600160a060020a0390921691637ef5029891602480820192608092909190829003018186803b1580156104d157600080fd5b505afa1580156104e5573d6000803e3d6000fd5b505050506040513d60808110156104fb57600080fd5b5080516060909101519092509050600160ff83161461054e5760405160e560020a62461bcd02815260040180806020018281038252602281526020018061114e6022913960400191505060405180910390fd5b604080517f4e6f74655369676e6174757265280000000000000000000000000000000000006020808301919091527f62797465733332206e6f7465486173682c000000000000000000000000000000602e8301527f61646472657373207370656e6465722c00000000000000000000000000000000603f8301527f626f6f6c20737461747573000000000000000000000000000000000000000000604f8301527f2900000000000000000000000000000000000000000000000000000000000000605a8301528251603b818403018152605b83018452805190820120607b830152609b82018a9052600160a060020a03891660bb83015260ff851660db808401919091528351808403909101815260fb9092019092528051910120600061067d61067783610df1565b87610e31565b9050600160a060020a03808216908416146106cc5760405160e560020a62461bcd0281526004018080602001828103825260298152602001806111a26029913960400191505060405180910390fd5b505050600095865250600760209081526040808720600160a060020a0396909616875294905292909320805460ff1916911515919091179055919050565b60045460ff808216916101008104821691620100009091041683565b600180546040517fc35b8526000000000000000000000000000000000000000000000000000000008152600481018381523360248301819052606060448401818152606485018890526000969195600160a060020a03169463c35b8526949293928a928a92608401848480828437600081840152601f19601f82011690508083019250505095505050505050600060405180830381600087803b1580156107cc57600080fd5b505af11580156107e0573d6000803e3d6000fd5b505050506040513d6000823e601f3d908101601f19168201604052602081101561080957600080fd5b81019080805164010000000081111561082157600080fd5b8201602081018481111561083457600080fd5b815164010000000081118282018710171561084e57600080fd5b50508051909450151592506108b0915050576040805160e560020a62461bcd02815260206004820152600e60248201527f70726f6f6620696e76616c696421000000000000000000000000000000000000604482015290519081900360640190fd5b60606108c382600063ffffffff610f4016565b600180546040517fa975f524000000000000000000000000000000000000000000000000000000008152602481018390523060448201819052606060048301908152855160648401528551959650600160a060020a039093169463a975f52494879490939091829160840190602087019080838360005b8381101561095257818101518382015260200161093a565b50505050905090810190601f16801561097f5780820380516001836020036101000a031916815260200191505b50945050505050602060405180830381600087803b1580156109a057600080fd5b505af11580156109b4573d6000803e3d6000fd5b505050506040513d60208110156109ca57600080fd5b50511515610a22576040805160e560020a62461bcd02815260206004820152601f60248201527f636f756c64206e6f7420757064617465206e6f74652072656769737472792100604482015290519081900360640190fd5b606080600080610a3185610f4d565b9350935093509350610a4284610f6e565b610a4b83611052565b6000811215610a995781600160a060020a03167fb5a180391883519ed3f7752a4b3adcd5ba0048972babf977dced29d338ad275a826000036040518082815260200191505060405180910390a25b6000811315610ae257604080518281529051600160a060020a038416917ff76fdfc7a4a006b652d723f0f84355b4a8113cbf80af27a61b0f8456d3c2eef1919081900360200190a25b50505050505092915050565b600354600160a060020a031681565b600154600160a060020a031681565b60005481565b600254600160a060020a031681565b60065481565b6000606080600080610b6e87878080601f016020809104026020016040519081016040528093929190818152602001838380828437600092019190915250610f4d92505050565b9296509094509250905060005b610b8485611132565b811015610c14576000610ba5610ba0878463ffffffff610f4016565b611139565b50600081815260076020908152604080832033845290915290205490925060ff1615156001149050610c0b5760405160e560020a62461bcd0281526004018080602001828103825260328152602001806111706032913960400191505060405180910390fd5b50600101610b7b565b506001546040517fa975f52400000000000000000000000000000000000000000000000000000000815261ffff8a1660248201523360448201819052606060048301908152606483018a9052600160a060020a039093169263a975f524928b928b928e928190608401868680828437600081840152601f19601f82011690508083019250505095505050505050602060405180830381600087803b158015610cbb57600080fd5b505af1158015610ccf573d6000803e3d6000fd5b505050506040513d6020811015610ce557600080fd5b50511515610d3d576040805160e560020a62461bcd02815260206004820152601f60248201527f636f756c64206e6f7420757064617465206e6f74652072656769737472792100604482015290519081900360640190fd5b610d4684610f6e565b610d4f83611052565b6000811215610d9d5781600160a060020a03167fb5a180391883519ed3f7752a4b3adcd5ba0048972babf977dced29d338ad275a826000036040518082815260200191505060405180910390a25b6000811315610de657604080518281529051600160a060020a038416917ff76fdfc7a4a006b652d723f0f84355b4a8113cbf80af27a61b0f8456d3c2eef1919081900360200190a25b505050509392505050565b6000546040517f19010000000000000000000000000000000000000000000000000000000000008152600281019190915260228101919091526042902090565b60008060208301516040840151606085015160001a60405187815281602082015283604082015282606082015260208160808360015afa601c8314601b8414176041895114161694508051955050505050801515610ed9576040805160e560020a62461bcd02815260206004820152601a60248201527f7369676e6174757265207265636f76657279206661696c656421000000000000604482015290519081900360640190fd5b600160a060020a0382161515610f39576040805160e560020a62461bcd02815260206004820152601a60248201527f7369676e657220616464726573732063616e6e6f742062652030000000000000604482015290519081900360640190fd5b5092915050565b6020028101604001510190565b60208101516040820151606083015160808401519284019491909301929190565b60005b610f7a82611132565b81101561104e576000806060610f99610ba0868663ffffffff610f4016565b92509250925082600160a060020a0316827faf5b4f95b97f88e83227a8fbec89579c367b26c18a4d1e5628d5fb2def351d89836040518080602001828103825283818151815260200191508051906020019080838360005b83811015611009578181015183820152602001610ff1565b50505050905090810190601f1680156110365780820380516001836020036101000a031916815260200191505b509250505060405180910390a3505050600101610f71565b5050565b60005b61105e82611132565b81101561104e57600080606061107d610ba0868663ffffffff610f4016565b92509250925082600160a060020a0316827f0a12a3d1e6a8e2e5949ed11fc753806ae5bc58941221f65fa5184704c23da07e836040518080602001828103825283818151815260200191508051906020019080838360005b838110156110ed5781810151838201526020016110d5565b50505050905090810190601f16801561111a5780820380516001836020036101000a031916815260200191505b509250505060405180910390a3505050600101611055565b6020015190565b60208101516040820151909290916060019056fe6f6e6c7920756e7370656e74206e6f7465732063616e20626520617070726f76656473656e64657220646f6573206e6f74206861766520617070726f76616c20746f207370656e6420696e707574206e6f746521746865206e6f7465206f776e657220646964206e6f74207369676e2074686973206d65737361676521a165627a7a72305820610e94ecccadd9a402a3d825ad524a1d89aecf79da9d9821c602eca1e2636f0d0029",
  "source": "pragma solidity >=0.5.0 <0.6.0;\n\nimport \"../ACE/ACE.sol\";\nimport \"../libs/LibEIP712.sol\";\n\ncontract ZKERC20 is LibEIP712 {\n    using NoteUtils for bytes;\n    \n    // Hash for the EIP712 Note Signature schema\n    /* solhint-disable */\n    bytes32 constant internal NOTE_SIGNATURE_TYPEHASH = keccak256(abi.encodePacked(\n        \"NoteSignature(\",\n        \"bytes32 noteHash,\",\n        \"address spender,\",\n        \"bool status\",\n        \")\"\n    ));\n\n    // EIP712 Domain Name value\n    string constant internal EIP712_DOMAIN_NAME = \"ZKERC20\";\n\n    ACE public ace;\n    ERC20 public linkedToken;\n    NoteRegistry public noteRegistry;\n    NoteRegistry.Flags public flags;\n\n    string public name;\n    uint256 public scalingFactor;\n    mapping(bytes32 => mapping(address => bool)) public confidentialApproved;\n\n    event LogCreateNoteRegistry(address noteRegistry);\n    event LogCreateZKERC20(\n        bool canMint,\n        bool canBurn,\n        bool canConvert,\n        uint256 scalingFactor,\n        address linkedToken,\n        address ace\n    );\n    event LogCreateNote(bytes32 indexed _noteHash, address indexed _owner, bytes _metadata);\n    event LogDestroyNote(bytes32 indexed _noteHash, address indexed _owner, bytes _metadata);\n    event LogConvertTokens(address indexed _owner, uint256 _value);\n    event LogRedeemTokens(address indexed _owner, uint256 _value);\n\n    /* solhint-enable */\n    constructor(\n        string memory _name,\n        bool _canMint,\n        bool _canBurn,\n        bool _canConvert,\n        uint256 _scalingFactor,\n        address _linkedTokenAddress,\n        address _aceAddress\n    ) public {\n        name = _name;\n        flags = NoteRegistry.Flags(_canMint, _canBurn, _canConvert);\n        scalingFactor = _scalingFactor;\n        ace = ACE(_aceAddress);\n        linkedToken = ERC20(_linkedTokenAddress);\n        noteRegistry = NoteRegistry(ace.createNoteRegistry(\n            _canMint,\n            _canBurn,\n            _canConvert,\n            _scalingFactor,\n            _linkedTokenAddress\n        ));\n        emit LogCreateNoteRegistry(address(noteRegistry));\n        emit LogCreateZKERC20(\n            _canMint,\n            _canBurn,\n            _canConvert,\n            _scalingFactor,\n            _linkedTokenAddress,\n            _aceAddress\n        );\n    }\n    \n    function confidentialTransfer(bytes calldata _proofData) external returns (bool) {\n        bytes memory proofOutputs = ace.validateProof(1, msg.sender, _proofData);\n        require(proofOutputs.length != 0, \"proof invalid!\");\n        bytes memory proofOutput = proofOutputs.get(0);\n        \n        \n        require(ace.updateNoteRegistry(proofOutput, 1, address(this)), \"could not update note registry!\");\n        \n        (bytes memory inputNotes,\n        bytes memory outputNotes,\n        address publicOwner,\n        int256 publicValue) = proofOutput.extractProofOutput();\n\n        logInputNotes(inputNotes);\n        logOutputNotes(outputNotes);\n        if (publicValue < 0) {\n            emit LogConvertTokens(publicOwner, uint256(-publicValue));\n        }\n        if (publicValue > 0) {\n            emit LogRedeemTokens(publicOwner, uint256(publicValue));\n        }\n    }\n\n    function confidentialTransferFrom(uint16 _proofId, bytes calldata _proofOutput) external returns (bool) {\n        (bytes memory inputNotes,\n        bytes memory outputNotes,\n        address publicOwner,\n        int256 publicValue) = _proofOutput.extractProofOutput();\n        for (uint i = 0; i < inputNotes.getLength(); i += 1) {\n            (, bytes32 noteHash, ) = inputNotes.get(i).extractNote();\n            require(\n                confidentialApproved[noteHash][msg.sender] == true,\n                \"sender does not have approval to spend input note!\"\n            );\n        }\n\n        require(\n            ace.updateNoteRegistry(_proofOutput, _proofId, msg.sender),\n            \"could not update note registry!\"\n        );\n\n        logInputNotes(inputNotes);\n        logOutputNotes(outputNotes);\n        if (publicValue < 0) {\n            emit LogConvertTokens(publicOwner, uint256(-publicValue));\n        }\n        if (publicValue > 0) {\n            emit LogRedeemTokens(publicOwner, uint256(publicValue));\n        }\n    }\n\n    function confidentialApprove(\n        bytes32 _noteHash,\n        address _spender,\n        bool _status,\n        bytes memory _signature\n    ) public returns (bool) {\n        (\n            uint8 status,\n            ,\n            ,\n            address noteOwner\n        ) = noteRegistry.registry(_noteHash);\n\n        require(status == 1, \"only unspent notes can be approved\");\n\n        // validate EIP712 signature\n        bytes32 hashStruct = keccak256(abi.encode(\n            NOTE_SIGNATURE_TYPEHASH,\n            _noteHash,\n            _spender,\n            status\n        ));\n        address signer = recoverSignature(\n            hashEIP712Message(hashStruct),\n            _signature\n        );\n        require(signer == noteOwner, \"the note owner did not sign this message!\");\n        confidentialApproved[_noteHash][_spender] = _status;\n    }\n\n    function logInputNotes(bytes memory inputNotes) internal {\n        for (uint i = 0; i < inputNotes.getLength(); i += 1) {\n            (address owner, bytes32 noteHash, bytes memory metadata) = inputNotes.get(i).extractNote();\n            emit LogDestroyNote(noteHash, owner, metadata);\n        }\n    }\n\n    function logOutputNotes(bytes memory outputNotes) internal {\n        for (uint i = 0; i < outputNotes.getLength(); i += 1) {\n            (address owner, bytes32 noteHash, bytes memory metadata) = outputNotes.get(i).extractNote();\n            emit LogCreateNote(noteHash, owner, metadata);\n        }\n    }\n}\n",
  "sourcePath": "/home/arsalen/Desktop/draft/AZTECProtocol/aztec-demo-js/protocol/contracts/ZKERC20/ZKERC20.sol",
  "compiler": {
    "name": "solc",
    "version": "0.5.4+commit.9549d8ff.Emscripten.clang"
  },
  "schemaVersion": "3.0.2",
  "updatedAt": "2019-03-03T05:16:21.037Z",
  "devdoc": {
    "methods": {}
  },
  "userdoc": {
    "methods": {}
  }
}